{
  "contractName": "DefaultReverseResolver",
  "abi": [
    {
      "constant": true,
      "inputs": [],
      "name": "ens",
      "outputs": [
        {
          "name": "",
          "type": "address"
        }
      ],
      "payable": false,
      "stateMutability": "view",
      "type": "function"
    },
    {
      "constant": true,
      "inputs": [
        {
          "name": "",
          "type": "bytes32"
        }
      ],
      "name": "name",
      "outputs": [
        {
          "name": "",
          "type": "string"
        }
      ],
      "payable": false,
      "stateMutability": "view",
      "type": "function"
    },
    {
      "constant": false,
      "inputs": [
        {
          "name": "node",
          "type": "bytes32"
        },
        {
          "name": "_name",
          "type": "string"
        }
      ],
      "name": "setName",
      "outputs": [],
      "payable": false,
      "stateMutability": "nonpayable",
      "type": "function"
    },
    {
      "inputs": [
        {
          "name": "ensAddr",
          "type": "address"
        }
      ],
      "payable": false,
      "stateMutability": "nonpayable",
      "type": "constructor"
    }
  ],
  "bytecode": "0x6060604052341561000f57600080fd5b6040516020806106c9833981016040528080519060200190919050506000816000806101000a81548173ffffffffffffffffffffffffffffffffffffffff021916908373ffffffffffffffffffffffffffffffffffffffff1602179055506000809054906101000a900473ffffffffffffffffffffffffffffffffffffffff1673ffffffffffffffffffffffffffffffffffffffff166302571be37f91d1777781884d03a6757a803996e38de2a42967fb37eeaca72729271025a9e26001026000604051602001526040518263ffffffff167c0100000000000000000000000000000000000000000000000000000000028152600401808260001916600019168152602001915050602060405180830381600087803b151561013057600080fd5b6102c65a03f1151561014157600080fd5b50505060405180519050905060008173ffffffffffffffffffffffffffffffffffffffff1614151561022d578073ffffffffffffffffffffffffffffffffffffffff16631e83409a336000604051602001526040518263ffffffff167c0100000000000000000000000000000000000000000000000000000000028152600401808273ffffffffffffffffffffffffffffffffffffffff1673ffffffffffffffffffffffffffffffffffffffff168152602001915050602060405180830381600087803b151561021057600080fd5b6102c65a03f1151561022157600080fd5b50505060405180519050505b505061048b8061023e6000396000f300606060405260043610610057576000357c0100000000000000000000000000000000000000000000000000000000900463ffffffff1680633f15457f1461005c578063691f3431146100b15780637737221314610151575b600080fd5b341561006757600080fd5b61006f6101bb565b604051808273ffffffffffffffffffffffffffffffffffffffff1673ffffffffffffffffffffffffffffffffffffffff16815260200191505060405180910390f35b34156100bc57600080fd5b6100d66004808035600019169060200190919050506101e0565b6040518080602001828103825283818151815260200191508051906020019080838360005b838110156101165780820151818401526020810190506100fb565b50505050905090810190601f1680156101435780820380516001836020036101000a031916815260200191505b509250505060405180910390f35b341561015c57600080fd5b6101b960048080356000191690602001909190803590602001908201803590602001908080601f01602080910402602001604051908101604052809392919081815260200183838082843782019150505050505091905050610290565b005b6000809054906101000a900473ffffffffffffffffffffffffffffffffffffffff1681565b60016020528060005260406000206000915090508054600181600116156101000203166002900480601f0160208091040260200160405190810160405280929190818152602001828054600181600116156101000203166002900480156102885780601f1061025d57610100808354040283529160200191610288565b820191906000526020600020905b81548152906001019060200180831161026b57829003601f168201915b505050505081565b816000809054906101000a900473ffffffffffffffffffffffffffffffffffffffff1673ffffffffffffffffffffffffffffffffffffffff166302571be3826000604051602001526040518263ffffffff167c0100000000000000000000000000000000000000000000000000000000028152600401808260001916600019168152602001915050602060405180830381600087803b151561033157600080fd5b6102c65a03f1151561034257600080fd5b5050506040518051905073ffffffffffffffffffffffffffffffffffffffff163373ffffffffffffffffffffffffffffffffffffffff1614151561038557600080fd5b8160016000856000191660001916815260200190815260200160002090805190602001906103b49291906103ba565b50505050565b828054600181600116156101000203166002900490600052602060002090601f016020900481019282601f106103fb57805160ff1916838001178555610429565b82800160010185558215610429579182015b8281111561042857825182559160200191906001019061040d565b5b509050610436919061043a565b5090565b61045c91905b80821115610458576000816000905550600101610440565b5090565b905600a165627a7a7230582000a2a710a378170c2ffd49b9bf36a66464a739ddadff3cfbecff7e6f73fc8dbc0029",
  "source": "pragma solidity ^0.4.10;\n\nimport \"./AbstractENS.sol\";\n\ncontract Resolver {\n    function setName(bytes32 node, string name) public;\n}\n\n/**\n * @dev Provides a default implementation of a resolver for reverse records,\n * which permits only the owner to update it.\n */\ncontract DefaultReverseResolver is Resolver {\n    // namehash('addr.reverse')\n    bytes32 constant ADDR_REVERSE_NODE = 0x91d1777781884d03a6757a803996e38de2a42967fb37eeaca72729271025a9e2;\n\n    AbstractENS public ens;\n    mapping(bytes32=>string) public name;\n    \n    /**\n     * @dev Constructor\n     * @param ensAddr The address of the ENS registry.\n     */\n    function DefaultReverseResolver(AbstractENS ensAddr) {\n        ens = ensAddr;\n\n        // Assign ownership of the reverse record to our deployer\n        var registrar = ReverseRegistrar(ens.owner(ADDR_REVERSE_NODE));\n        if(address(registrar) != 0) {\n            registrar.claim(msg.sender);\n        }\n    }\n\n    /**\n     * @dev Only permits calls by the reverse registrar.\n     * @param node The node permission is required for.\n     */\n    modifier owner_only(bytes32 node) {\n        require(msg.sender == ens.owner(node));\n        _;\n    }\n\n    /**\n     * @dev Sets the name for a node.\n     * @param node The node to update.\n     * @param _name The name to set.\n     */\n    function setName(bytes32 node, string _name) public owner_only(node) {\n        name[node] = _name;\n    }\n}\n\ncontract ReverseRegistrar {\n    // namehash('addr.reverse')\n    bytes32 constant ADDR_REVERSE_NODE = 0x91d1777781884d03a6757a803996e38de2a42967fb37eeaca72729271025a9e2;\n\n    AbstractENS public ens;\n    Resolver public defaultResolver;\n\n    /**\n     * @dev Constructor\n     * @param ensAddr The address of the ENS registry.\n     * @param resolverAddr The address of the default reverse resolver.\n     */\n    function ReverseRegistrar(AbstractENS ensAddr, Resolver resolverAddr) {\n        ens = ensAddr;\n        defaultResolver = resolverAddr;\n\n        // Assign ownership of the reverse record to our deployer\n        var oldRegistrar = ReverseRegistrar(ens.owner(ADDR_REVERSE_NODE));\n        if(address(oldRegistrar) != 0) {\n            oldRegistrar.claim(msg.sender);\n        }\n    }\n    \n    /**\n     * @dev Transfers ownership of the reverse ENS record associated with the\n     *      calling account.\n     * @param owner The address to set as the owner of the reverse record in ENS.\n     * @return The ENS node hash of the reverse record.\n     */\n    function claim(address owner) returns (bytes32 node) {\n        return claimWithResolver(owner, 0);\n    }\n\n    /**\n     * @dev Transfers ownership of the reverse ENS record associated with the\n     *      calling account.\n     * @param owner The address to set as the owner of the reverse record in ENS.\n     * @param resolver The address of the resolver to set; 0 to leave unchanged.\n     * @return The ENS node hash of the reverse record.\n     */\n    function claimWithResolver(address owner, address resolver) returns (bytes32 node) {\n        var label = sha3HexAddress(msg.sender);\n        node = sha3(ADDR_REVERSE_NODE, label);\n        var currentOwner = ens.owner(node);\n\n        // Update the resolver if required\n        if(resolver != 0 && resolver != ens.resolver(node)) {\n            // Transfer the name to us first if it's not already\n            if(currentOwner != address(this)) {\n                ens.setSubnodeOwner(ADDR_REVERSE_NODE, label, this);\n                currentOwner = address(this);\n            }\n            ens.setResolver(node, resolver);\n        }\n\n        // Update the owner if required\n        if(currentOwner != owner) {\n            ens.setSubnodeOwner(ADDR_REVERSE_NODE, label, owner);\n        }\n\n        return node;\n    }\n\n    /**\n     * @dev Sets the `name()` record for the reverse ENS record associated with\n     * the calling account. First updates the resolver to the default reverse\n     * resolver if necessary.\n     * @param name The name to set for this address.\n     * @return The ENS node hash of the reverse record.\n     */\n    function setName(string name) returns (bytes32 node) {\n        node = claimWithResolver(this, defaultResolver);\n        defaultResolver.setName(node, name);\n        return node;\n    }\n\n    /**\n     * @dev Returns the node hash for a given account's reverse records.\n     * @param addr The address to hash\n     * @return The ENS node hash.\n     */\n    function node(address addr) constant returns (bytes32 ret) {\n        return sha3(ADDR_REVERSE_NODE, sha3HexAddress(addr));\n    }\n\n    /**\n     * @dev An optimised function to compute the sha3 of the lower-case\n     *      hexadecimal representation of an Ethereum address.\n     * @param addr The address to hash\n     * @return The SHA3 hash of the lower-case hexadecimal encoding of the\n     *         input address.\n     */\n    function sha3HexAddress(address addr) private returns (bytes32 ret) {\n        addr; ret; // Stop warning us about unused variables\n        assembly {\n            let lookup := 0x3031323334353637383961626364656600000000000000000000000000000000\n            let i := 40\n        loop:\n            i := sub(i, 1)\n            mstore8(i, byte(and(addr, 0xf), lookup))\n            addr := div(addr, 0x10)\n            i := sub(i, 1)\n            mstore8(i, byte(and(addr, 0xf), lookup))\n            addr := div(addr, 0x10)\n            jumpi(loop, i)\n            ret := sha3(0, 40)\n        }\n    }\n}\n",
  "sourcePath": "/Users/anduril/ens-playground/contracts/ReverseRegistrar.sol",
  "compiler": {
    "name": "solc",
    "version": "0.4.18+commit.9cf6e910.Emscripten.clang"
  },
  "schemaVersion": "1.0.1",
  "updatedAt": "2017-12-18T19:31:39.123Z"
}