{
  "contractName": "DNSResolver",
  "abi": [
    {
      "constant": true,
      "inputs": [
        {
          "name": "interfaceID",
          "type": "bytes4"
        }
      ],
      "name": "supportsInterface",
      "outputs": [
        {
          "name": "",
          "type": "bool"
        }
      ],
      "payable": false,
      "stateMutability": "view",
      "type": "function"
    },
    {
      "constant": true,
      "inputs": [
        {
          "name": "node",
          "type": "bytes32"
        }
      ],
      "name": "dnsrr",
      "outputs": [
        {
          "name": "data",
          "type": "bytes"
        }
      ],
      "payable": false,
      "stateMutability": "view",
      "type": "function"
    },
    {
      "constant": false,
      "inputs": [
        {
          "name": "node",
          "type": "bytes32"
        },
        {
          "name": "data",
          "type": "bytes"
        }
      ],
      "name": "setDnsrr",
      "outputs": [],
      "payable": false,
      "stateMutability": "nonpayable",
      "type": "function"
    },
    {
      "constant": true,
      "inputs": [],
      "name": "owner",
      "outputs": [
        {
          "name": "",
          "type": "address"
        }
      ],
      "payable": false,
      "stateMutability": "view",
      "type": "function"
    },
    {
      "inputs": [],
      "payable": false,
      "stateMutability": "nonpayable",
      "type": "constructor"
    }
  ],
  "bytecode": "0x6060604052341561000f57600080fd5b336000806101000a81548173ffffffffffffffffffffffffffffffffffffffff021916908373ffffffffffffffffffffffffffffffffffffffff1602179055506104ca8061005e6000396000f300606060405260043610610062576000357c0100000000000000000000000000000000000000000000000000000000900463ffffffff16806301ffc9a714610067578063126a710e146100c157806376196c88146101615780638da5cb5b146101cb575b600080fd5b341561007257600080fd5b6100a760048080357bffffffffffffffffffffffffffffffffffffffffffffffffffffffff1916906020019091905050610220565b604051808215151515815260200191505060405180910390f35b34156100cc57600080fd5b6100e660048080356000191690602001909190505061026e565b6040518080602001828103825283818151815260200191508051906020019080838360005b8381101561012657808201518184015260208101905061010b565b50505050905090810190601f1680156101535780820380516001836020036101000a031916815260200191505b509250505060405180910390f35b341561016c57600080fd5b6101c960048080356000191690602001909190803590602001908201803590602001908080601f01602080910402602001604051908101604052809392919081815260200183838082843782019150505050505091905050610331565b005b34156101d657600080fd5b6101de6103c0565b604051808273ffffffffffffffffffffffffffffffffffffffff1673ffffffffffffffffffffffffffffffffffffffff16815260200191505060405180910390f35b600063126a710e7c010000000000000000000000000000000000000000000000000000000002827bffffffffffffffffffffffffffffffffffffffffffffffffffffffff1916149050919050565b6102766103e5565b6001600083600019166000191681526020019081526020016000208054600181600116156101000203166002900480601f0160208091040260200160405190810160405280929190818152602001828054600181600116156101000203166002900480156103255780601f106102fa57610100808354040283529160200191610325565b820191906000526020600020905b81548152906001019060200180831161030857829003601f168201915b50505050509050919050565b6000809054906101000a900473ffffffffffffffffffffffffffffffffffffffff1673ffffffffffffffffffffffffffffffffffffffff163373ffffffffffffffffffffffffffffffffffffffff1614151561038c57600080fd5b8060016000846000191660001916815260200190815260200160002090805190602001906103bb9291906103f9565b505050565b6000809054906101000a900473ffffffffffffffffffffffffffffffffffffffff1681565b602060405190810160405280600081525090565b828054600181600116156101000203166002900490600052602060002090601f016020900481019282601f1061043a57805160ff1916838001178555610468565b82800160010185558215610468579182015b8281111561046757825182559160200191906001019061044c565b5b5090506104759190610479565b5090565b61049b91905b8082111561049757600081600090555060010161047f565b5090565b905600a165627a7a723058204ab1f65ea0cb97c28827b6ce8d5716f5982da2ddd869ff8909ff07cf90d223a10029",
  "source": "pragma solidity ^0.4.0;\n\ncontract DNSResolver {\n    address public owner;\n    mapping(bytes32=>bytes) zones;\n    \n    function DNSResolver() {\n        owner = msg.sender;\n    }\n    \n    modifier owner_only {\n        if (msg.sender != owner) throw;\n        _;\n    }\n    \n    function supportsInterface(bytes4 interfaceID) constant returns (bool) {\n        return interfaceID == 0x126a710e;\n    }\n    \n    function dnsrr(bytes32 node) constant returns (bytes data) {\n        return zones[node];\n    }\n    \n    function setDnsrr(bytes32 node, bytes data) owner_only {\n        zones[node] = data;\n    }\n}\n",
  "sourcePath": "/Users/anduril/ens-playground/contracts/DNSResolver.sol",
  "compiler": {
    "name": "solc",
    "version": "0.4.18+commit.9cf6e910.Emscripten.clang"
  },
  "schemaVersion": "1.0.1",
  "updatedAt": "2017-12-18T19:31:39.111Z"
}