{
  "contractName": "FIFSRegistrar",
  "abi": [
    {
      "constant": false,
      "inputs": [
        {
          "name": "subnode",
          "type": "bytes32"
        },
        {
          "name": "owner",
          "type": "address"
        }
      ],
      "name": "register",
      "outputs": [],
      "payable": false,
      "stateMutability": "nonpayable",
      "type": "function"
    },
    {
      "inputs": [
        {
          "name": "ensAddr",
          "type": "address"
        },
        {
          "name": "node",
          "type": "bytes32"
        }
      ],
      "payable": false,
      "stateMutability": "nonpayable",
      "type": "constructor"
    }
  ],
  "bytecode": "0x6060604052341561000f57600080fd5b60405160408061039083398101604052808051906020019091908051906020019091905050816000806101000a81548173ffffffffffffffffffffffffffffffffffffffff021916908373ffffffffffffffffffffffffffffffffffffffff16021790555080600181600019169055505050610300806100906000396000f300606060405260043610610041576000357c0100000000000000000000000000000000000000000000000000000000900463ffffffff168063d22057a914610046575b600080fd5b341561005157600080fd5b61008a60048080356000191690602001909190803573ffffffffffffffffffffffffffffffffffffffff1690602001909190505061008c565b005b8160008060015483604051808360001916600019168152602001826000191660001916815260200192505050604051809103902091506000809054906101000a900473ffffffffffffffffffffffffffffffffffffffff1673ffffffffffffffffffffffffffffffffffffffff166302571be3836000604051602001526040518263ffffffff167c0100000000000000000000000000000000000000000000000000000000028152600401808260001916600019168152602001915050602060405180830381600087803b151561016257600080fd5b6102c65a03f1151561017357600080fd5b50505060405180519050905060008173ffffffffffffffffffffffffffffffffffffffff16141580156101d257503373ffffffffffffffffffffffffffffffffffffffff168173ffffffffffffffffffffffffffffffffffffffff1614155b156101dc57600080fd5b6000809054906101000a900473ffffffffffffffffffffffffffffffffffffffff1673ffffffffffffffffffffffffffffffffffffffff166306ab592360015487876040518463ffffffff167c010000000000000000000000000000000000000000000000000000000002815260040180846000191660001916815260200183600019166000191681526020018273ffffffffffffffffffffffffffffffffffffffff1673ffffffffffffffffffffffffffffffffffffffff1681526020019350505050600060405180830381600087803b15156102b957600080fd5b6102c65a03f115156102ca57600080fd5b50505050505050505600a165627a7a72305820f562d8da283f7e01ef4d8817f16b4b94ab2821b8f6e62e7dc8e2fbf8c80aa6c50029",
  "source": "pragma solidity ^0.4.0;\n\nimport './AbstractENS.sol';\n\n/**\n * A registrar that allocates subdomains to the first person to claim them.\n */\ncontract FIFSRegistrar {\n    AbstractENS ens;\n    bytes32 rootNode;\n\n    modifier only_owner(bytes32 subnode) {\n        var node = sha3(rootNode, subnode);\n        var currentOwner = ens.owner(node);\n\n        if (currentOwner != 0 && currentOwner != msg.sender) throw;\n\n        _;\n    }\n\n    /**\n     * Constructor.\n     * @param ensAddr The address of the ENS registry.\n     * @param node The node that this registrar administers.\n     */\n    function FIFSRegistrar(AbstractENS ensAddr, bytes32 node) {\n        ens = ensAddr;\n        rootNode = node;\n    }\n\n    /**\n     * Register a name, or change the owner of an existing registration.\n     * @param subnode The hash of the label to register.\n     * @param owner The address of the new owner.\n     */\n    function register(bytes32 subnode, address owner) only_owner(subnode) {\n        ens.setSubnodeOwner(rootNode, subnode, owner);\n    }\n}\n",
  "sourcePath": "/Users/anduril/ens-playground/contracts/FIFSRegistrar.sol",
  "compiler": {
    "name": "solc",
    "version": "0.4.18+commit.9cf6e910.Emscripten.clang"
  },
  "schemaVersion": "1.0.1",
  "updatedAt": "2017-12-19T21:20:50.459Z"
}