{
  "contractName": "Registrar",
  "abi": [
    {
      "constant": false,
      "inputs": [
        {
          "name": "_hash",
          "type": "bytes32"
        }
      ],
      "name": "releaseDeed",
      "outputs": [],
      "payable": false,
      "stateMutability": "nonpayable",
      "type": "function"
    },
    {
      "constant": true,
      "inputs": [
        {
          "name": "_hash",
          "type": "bytes32"
        }
      ],
      "name": "getAllowedTime",
      "outputs": [
        {
          "name": "timestamp",
          "type": "uint256"
        }
      ],
      "payable": false,
      "stateMutability": "view",
      "type": "function"
    },
    {
      "constant": false,
      "inputs": [
        {
          "name": "unhashedName",
          "type": "string"
        }
      ],
      "name": "invalidateName",
      "outputs": [],
      "payable": false,
      "stateMutability": "nonpayable",
      "type": "function"
    },
    {
      "constant": true,
      "inputs": [
        {
          "name": "hash",
          "type": "bytes32"
        },
        {
          "name": "owner",
          "type": "address"
        },
        {
          "name": "value",
          "type": "uint256"
        },
        {
          "name": "salt",
          "type": "bytes32"
        }
      ],
      "name": "shaBid",
      "outputs": [
        {
          "name": "sealedBid",
          "type": "bytes32"
        }
      ],
      "payable": false,
      "stateMutability": "view",
      "type": "function"
    },
    {
      "constant": false,
      "inputs": [
        {
          "name": "bidder",
          "type": "address"
        },
        {
          "name": "seal",
          "type": "bytes32"
        }
      ],
      "name": "cancelBid",
      "outputs": [],
      "payable": false,
      "stateMutability": "nonpayable",
      "type": "function"
    },
    {
      "constant": true,
      "inputs": [
        {
          "name": "_hash",
          "type": "bytes32"
        }
      ],
      "name": "entries",
      "outputs": [
        {
          "name": "",
          "type": "uint8"
        },
        {
          "name": "",
          "type": "address"
        },
        {
          "name": "",
          "type": "uint256"
        },
        {
          "name": "",
          "type": "uint256"
        },
        {
          "name": "",
          "type": "uint256"
        }
      ],
      "payable": false,
      "stateMutability": "view",
      "type": "function"
    },
    {
      "constant": true,
      "inputs": [],
      "name": "ens",
      "outputs": [
        {
          "name": "",
          "type": "address"
        }
      ],
      "payable": false,
      "stateMutability": "view",
      "type": "function"
    },
    {
      "constant": false,
      "inputs": [
        {
          "name": "_hash",
          "type": "bytes32"
        },
        {
          "name": "_value",
          "type": "uint256"
        },
        {
          "name": "_salt",
          "type": "bytes32"
        }
      ],
      "name": "unsealBid",
      "outputs": [],
      "payable": false,
      "stateMutability": "nonpayable",
      "type": "function"
    },
    {
      "constant": false,
      "inputs": [
        {
          "name": "_hash",
          "type": "bytes32"
        }
      ],
      "name": "transferRegistrars",
      "outputs": [],
      "payable": false,
      "stateMutability": "nonpayable",
      "type": "function"
    },
    {
      "constant": true,
      "inputs": [
        {
          "name": "",
          "type": "address"
        },
        {
          "name": "",
          "type": "bytes32"
        }
      ],
      "name": "sealedBids",
      "outputs": [
        {
          "name": "",
          "type": "address"
        }
      ],
      "payable": false,
      "stateMutability": "view",
      "type": "function"
    },
    {
      "constant": true,
      "inputs": [
        {
          "name": "_hash",
          "type": "bytes32"
        }
      ],
      "name": "state",
      "outputs": [
        {
          "name": "",
          "type": "uint8"
        }
      ],
      "payable": false,
      "stateMutability": "view",
      "type": "function"
    },
    {
      "constant": false,
      "inputs": [
        {
          "name": "_hash",
          "type": "bytes32"
        },
        {
          "name": "newOwner",
          "type": "address"
        }
      ],
      "name": "transfer",
      "outputs": [],
      "payable": false,
      "stateMutability": "nonpayable",
      "type": "function"
    },
    {
      "constant": true,
      "inputs": [
        {
          "name": "_hash",
          "type": "bytes32"
        },
        {
          "name": "_timestamp",
          "type": "uint256"
        }
      ],
      "name": "isAllowed",
      "outputs": [
        {
          "name": "allowed",
          "type": "bool"
        }
      ],
      "payable": false,
      "stateMutability": "view",
      "type": "function"
    },
    {
      "constant": false,
      "inputs": [
        {
          "name": "_hash",
          "type": "bytes32"
        }
      ],
      "name": "finalizeAuction",
      "outputs": [],
      "payable": false,
      "stateMutability": "nonpayable",
      "type": "function"
    },
    {
      "constant": true,
      "inputs": [],
      "name": "registryStarted",
      "outputs": [
        {
          "name": "",
          "type": "uint256"
        }
      ],
      "payable": false,
      "stateMutability": "view",
      "type": "function"
    },
    {
      "constant": true,
      "inputs": [],
      "name": "launchLength",
      "outputs": [
        {
          "name": "",
          "type": "uint32"
        }
      ],
      "payable": false,
      "stateMutability": "view",
      "type": "function"
    },
    {
      "constant": false,
      "inputs": [
        {
          "name": "sealedBid",
          "type": "bytes32"
        }
      ],
      "name": "newBid",
      "outputs": [],
      "payable": true,
      "stateMutability": "payable",
      "type": "function"
    },
    {
      "constant": false,
      "inputs": [
        {
          "name": "labels",
          "type": "bytes32[]"
        }
      ],
      "name": "eraseNode",
      "outputs": [],
      "payable": false,
      "stateMutability": "nonpayable",
      "type": "function"
    },
    {
      "constant": false,
      "inputs": [
        {
          "name": "_hash",
          "type": "bytes32"
        }
      ],
      "name": "register",
      "outputs": [],
      "payable": true,
      "stateMutability": "payable",
      "type": "function"
    },
    {
      "constant": false,
      "inputs": [
        {
          "name": "_hashes",
          "type": "bytes32[]"
        }
      ],
      "name": "startAuctions",
      "outputs": [],
      "payable": false,
      "stateMutability": "nonpayable",
      "type": "function"
    },
    {
      "constant": false,
      "inputs": [
        {
          "name": "hash",
          "type": "bytes32"
        },
        {
          "name": "deed",
          "type": "address"
        },
        {
          "name": "registrationDate",
          "type": "uint256"
        }
      ],
      "name": "acceptRegistrarTransfer",
      "outputs": [],
      "payable": false,
      "stateMutability": "nonpayable",
      "type": "function"
    },
    {
      "constant": false,
      "inputs": [
        {
          "name": "_hash",
          "type": "bytes32"
        }
      ],
      "name": "startAuction",
      "outputs": [],
      "payable": false,
      "stateMutability": "nonpayable",
      "type": "function"
    },
    {
      "constant": true,
      "inputs": [],
      "name": "rootNode",
      "outputs": [
        {
          "name": "",
          "type": "bytes32"
        }
      ],
      "payable": false,
      "stateMutability": "view",
      "type": "function"
    },
    {
      "constant": false,
      "inputs": [
        {
          "name": "hashes",
          "type": "bytes32[]"
        },
        {
          "name": "sealedBid",
          "type": "bytes32"
        }
      ],
      "name": "startAuctionsAndBid",
      "outputs": [],
      "payable": true,
      "stateMutability": "payable",
      "type": "function"
    },
    {
      "inputs": [
        {
          "name": "_ens",
          "type": "address"
        },
        {
          "name": "_rootNode",
          "type": "bytes32"
        },
        {
          "name": "_startDate",
          "type": "uint256"
        }
      ],
      "payable": false,
      "stateMutability": "nonpayable",
      "type": "constructor"
    },
    {
      "anonymous": false,
      "inputs": [
        {
          "indexed": true,
          "name": "hash",
          "type": "bytes32"
        },
        {
          "indexed": false,
          "name": "registrationDate",
          "type": "uint256"
        }
      ],
      "name": "AuctionStarted",
      "type": "event"
    },
    {
      "anonymous": false,
      "inputs": [
        {
          "indexed": true,
          "name": "hash",
          "type": "bytes32"
        },
        {
          "indexed": true,
          "name": "bidder",
          "type": "address"
        },
        {
          "indexed": false,
          "name": "deposit",
          "type": "uint256"
        }
      ],
      "name": "NewBid",
      "type": "event"
    },
    {
      "anonymous": false,
      "inputs": [
        {
          "indexed": true,
          "name": "hash",
          "type": "bytes32"
        },
        {
          "indexed": true,
          "name": "owner",
          "type": "address"
        },
        {
          "indexed": false,
          "name": "value",
          "type": "uint256"
        },
        {
          "indexed": false,
          "name": "status",
          "type": "uint8"
        }
      ],
      "name": "BidRevealed",
      "type": "event"
    },
    {
      "anonymous": false,
      "inputs": [
        {
          "indexed": true,
          "name": "hash",
          "type": "bytes32"
        },
        {
          "indexed": true,
          "name": "owner",
          "type": "address"
        },
        {
          "indexed": false,
          "name": "value",
          "type": "uint256"
        },
        {
          "indexed": false,
          "name": "registrationDate",
          "type": "uint256"
        }
      ],
      "name": "HashRegistered",
      "type": "event"
    },
    {
      "anonymous": false,
      "inputs": [
        {
          "indexed": true,
          "name": "hash",
          "type": "bytes32"
        },
        {
          "indexed": false,
          "name": "value",
          "type": "uint256"
        }
      ],
      "name": "HashReleased",
      "type": "event"
    },
    {
      "anonymous": false,
      "inputs": [
        {
          "indexed": true,
          "name": "hash",
          "type": "bytes32"
        },
        {
          "indexed": true,
          "name": "name",
          "type": "string"
        },
        {
          "indexed": false,
          "name": "value",
          "type": "uint256"
        },
        {
          "indexed": false,
          "name": "registrationDate",
          "type": "uint256"
        }
      ],
      "name": "HashInvalidated",
      "type": "event"
    }
  ],
  "bytecode": "0x6060604052341561000f57600080fd5b604051606080620043d083398101604052808051906020019091908051906020019091908051906020019091905050826000806101000a81548173ffffffffffffffffffffffffffffffffffffffff021916908373ffffffffffffffffffffffffffffffffffffffff1602179055508160018160001916905550600081116100975742610099565b805b60048190555050505061431e80620000b26000396000f30060606040526004361061013e576000357c0100000000000000000000000000000000000000000000000000000000900463ffffffff1680630230a07c1461014357806313c89a8f1461016a57806315f73331146101a557806322ec1244146102025780632525f5c11461027a578063267b6922146102c05780633f15457f1461035157806347872b42146103a65780635ddae283146103e35780635e4317091461040a57806361d585da1461049057806379ce9fac146104d9578063935033371461051f578063983b94fb146105675780639c67f06f1461058e578063ae1a0b0c146105b7578063ce92dced146105ec578063de10f04b14610608578063e1fa8e8414610662578063e27fe50f1461067e578063ea9e107a146106d8578063ede8acdb14610727578063faff50a81461074e578063febefd611461077f575b600080fd5b341561014e57600080fd5b6101686004808035600019169060200190919050506107db565b005b341561017557600080fd5b61018f600480803560001916906020019091905050610b80565b6040518082815260200191505060405180910390f35b34156101b057600080fd5b610200600480803590602001908201803590602001908080601f01602080910402602001604051908101604052809392919081815260200183838082843782019150505050505091905050610bac565b005b341561020d57600080fd5b61025c60048080356000191690602001909190803573ffffffffffffffffffffffffffffffffffffffff169060200190919080359060200190919080356000191690602001909190505061108e565b60405180826000191660001916815260200191505060405180910390f35b341561028557600080fd5b6102be600480803573ffffffffffffffffffffffffffffffffffffffff1690602001909190803560001916906020019091905050611113565b005b34156102cb57600080fd5b6102e5600480803560001916906020019091905050611482565b604051808660058111156102f557fe5b60ff1681526020018573ffffffffffffffffffffffffffffffffffffffff1673ffffffffffffffffffffffffffffffffffffffff1681526020018481526020018381526020018281526020019550505050505060405180910390f35b341561035c57600080fd5b6103646114fc565b604051808273ffffffffffffffffffffffffffffffffffffffff1673ffffffffffffffffffffffffffffffffffffffff16815260200191505060405180910390f35b34156103b157600080fd5b6103e160048080356000191690602001909190803590602001909190803560001916906020019091905050611521565b005b34156103ee57600080fd5b610408600480803560001916906020019091905050611e21565b005b341561041557600080fd5b61044e600480803573ffffffffffffffffffffffffffffffffffffffff169060200190919080356000191690602001909190505061228a565b604051808273ffffffffffffffffffffffffffffffffffffffff1673ffffffffffffffffffffffffffffffffffffffff16815260200191505060405180910390f35b341561049b57600080fd5b6104b56004808035600019169060200190919050506122cc565b604051808260058111156104c557fe5b60ff16815260200191505060405180910390f35b34156104e457600080fd5b61051d60048080356000191690602001909190803573ffffffffffffffffffffffffffffffffffffffff1690602001909190505061235b565b005b341561052a57600080fd5b61054d6004808035600019169060200190919080359060200190919050506125a9565b604051808215151515815260200191505060405180910390f35b341561057257600080fd5b61058c6004808035600019169060200190919050506125be565b005b341561059957600080fd5b6105a16129a0565b6040518082815260200191505060405180910390f35b34156105c257600080fd5b6105ca6129a6565b604051808263ffffffff1663ffffffff16815260200191505060405180910390f35b6106066004808035600019169060200190919050506129ad565b005b341561061357600080fd5b610660600480803590602001908201803590602001908080602002602001604051908101604052809392919081815260200183836020028082843782019150505050505091905050612ba5565b005b61067c600480803560001916906020019091905050612c0f565b005b341561068957600080fd5b6106d6600480803590602001908201803590602001908080602002602001604051908101604052809392919081815260200183836020028082843782019150505050505091905050612d94565b005b34156106e357600080fd5b61072560048080356000191690602001909190803573ffffffffffffffffffffffffffffffffffffffff16906020019091908035906020019091905050612dd4565b005b341561073257600080fd5b61074c600480803560001916906020019091905050612dd9565b005b341561075957600080fd5b610761612fcf565b60405180826000191660001916815260200191505060405180910390f35b6107d960048080359060200190820180359060200190808060200260200160405190810160405280939291908181526020018383602002808284378201915050505050509190803560001916906020019091905050612fd5565b005b60008082600260058111156107ec57fe5b6107f5826122cc565b600581111561080057fe5b1415806108fd575060026000826000191660001916815260200190815260200160002060000160009054906101000a900473ffffffffffffffffffffffffffffffffffffffff1673ffffffffffffffffffffffffffffffffffffffff16638da5cb5b6000604051602001526040518163ffffffff167c0100000000000000000000000000000000000000000000000000000000028152600401602060405180830381600087803b15156108b257600080fd5b6102c65a03f115156108c357600080fd5b5050506040518051905073ffffffffffffffffffffffffffffffffffffffff163373ffffffffffffffffffffffffffffffffffffffff1614155b1561090757600080fd5b60026000856000191660001916815260200190815260200160002092508260000160009054906101000a900473ffffffffffffffffffffffffffffffffffffffff1691506301e1338083600101540142108015610a4b57503073ffffffffffffffffffffffffffffffffffffffff166000809054906101000a900473ffffffffffffffffffffffffffffffffffffffff1673ffffffffffffffffffffffffffffffffffffffff166302571be36001546000604051602001526040518263ffffffff167c0100000000000000000000000000000000000000000000000000000000028152600401808260001916600019168152602001915050602060405180830381600087803b1515610a1857600080fd5b6102c65a03f11515610a2957600080fd5b5050506040518051905073ffffffffffffffffffffffffffffffffffffffff16145b15610a5557600080fd5b600083600201819055506000836003018190555060008360000160006101000a81548173ffffffffffffffffffffffffffffffffffffffff021916908373ffffffffffffffffffffffffffffffffffffffff160217905550610ab684612feb565b8173ffffffffffffffffffffffffffffffffffffffff1663bbe427716103e86040518263ffffffff167c010000000000000000000000000000000000000000000000000000000002815260040180828152602001915050600060405180830381600087803b1515610b2657600080fd5b6102c65a03f11515610b3757600080fd5b50505083600019167f292b79b9246fa2c8e77d3fe195b251f9cb839d7d038e667c069ee7708c631e1684600201546040518082815260200191505060405180910390a250505050565b600060808083600190049060020a90046249d40063ffffffff16029060020a9004600454019050919050565b600080826040518082805190602001908083835b602083101515610be55780518252602082019150602081019050602083039250610bc0565b6001836020036101000a03801982511681845116808217855250505050505090500191505060405180910390206002806005811115610c2057fe5b610c29836122cc565b6005811115610c3457fe5b141515610c4057600080fd5b6006610c4b86613399565b1115610c5657600080fd5b846040518082805190602001908083835b602083101515610c8c5780518252602082019150602081019050602083039250610c67565b6001836020036101000a038019825116818451168082178552505050505050905001915050604051809103902093506002600085600019166000191681526020019081526020016000209250610ce184612feb565b60008360000160009054906101000a900473ffffffffffffffffffffffffffffffffffffffff1673ffffffffffffffffffffffffffffffffffffffff16141515610f8057610d3a8360020154662386f26fc10000613458565b83600201819055508260000160009054906101000a900473ffffffffffffffffffffffffffffffffffffffff1673ffffffffffffffffffffffffffffffffffffffff1663b0c8097260028560020154811515610d9257fe5b0460006040518363ffffffff167c0100000000000000000000000000000000000000000000000000000000028152600401808381526020018215151515815260200192505050600060405180830381600087803b1515610df157600080fd5b6102c65a03f11515610e0257600080fd5b5050508260000160009054906101000a900473ffffffffffffffffffffffffffffffffffffffff1673ffffffffffffffffffffffffffffffffffffffff166313af4035336040518263ffffffff167c0100000000000000000000000000000000000000000000000000000000028152600401808273ffffffffffffffffffffffffffffffffffffffff1673ffffffffffffffffffffffffffffffffffffffff168152602001915050600060405180830381600087803b1515610ec357600080fd5b6102c65a03f11515610ed457600080fd5b5050508260000160009054906101000a900473ffffffffffffffffffffffffffffffffffffffff1673ffffffffffffffffffffffffffffffffffffffff1663bbe427716103e86040518263ffffffff167c010000000000000000000000000000000000000000000000000000000002815260040180828152602001915050600060405180830381600087803b1515610f6b57600080fd5b6102c65a03f11515610f7c57600080fd5b5050505b846040518082805190602001908083835b602083101515610fb65780518252602082019150602081019050602083039250610f91565b6001836020036101000a038019825116818451168082178552505050505050905001915050604051809103902084600019167f1f9c649fe47e58bb60f4e52f0d90e4c47a526c9f90c5113df842c025970b66ad85600201548660010154604051808381526020018281526020019250505060405180910390a3600083600201819055506000836003018190555060008360000160006101000a81548173ffffffffffffffffffffffffffffffffffffffff021916908373ffffffffffffffffffffffffffffffffffffffff1602179055505050505050565b6000848484846040518085600019166000191681526020018473ffffffffffffffffffffffffffffffffffffffff1673ffffffffffffffffffffffffffffffffffffffff166c01000000000000000000000000028152601401838152602001826000191660001916815260200194505050505060405180910390209050949350505050565b6000600360008473ffffffffffffffffffffffffffffffffffffffff1673ffffffffffffffffffffffffffffffffffffffff1681526020019081526020016000206000836000191660001916815260200190815260200160002060009054906101000a900473ffffffffffffffffffffffffffffffffffffffff16905060008173ffffffffffffffffffffffffffffffffffffffff16148061124a5750621275006206978063ffffffff168273ffffffffffffffffffffffffffffffffffffffff166305b344106000604051602001526040518163ffffffff167c0100000000000000000000000000000000000000000000000000000000028152600401602060405180830381600087803b151561122a57600080fd5b6102c65a03f1151561123b57600080fd5b50505060405180519050010142105b1561125457600080fd5b8073ffffffffffffffffffffffffffffffffffffffff166313af4035336040518263ffffffff167c0100000000000000000000000000000000000000000000000000000000028152600401808273ffffffffffffffffffffffffffffffffffffffff1673ffffffffffffffffffffffffffffffffffffffff168152602001915050600060405180830381600087803b15156112ee57600080fd5b6102c65a03f115156112ff57600080fd5b5050508073ffffffffffffffffffffffffffffffffffffffff1663bbe4277160056040518263ffffffff167c010000000000000000000000000000000000000000000000000000000002815260040180828152602001915050600060405180830381600087803b151561137157600080fd5b6102c65a03f1151561138257600080fd5b5050506000600360008573ffffffffffffffffffffffffffffffffffffffff1673ffffffffffffffffffffffffffffffffffffffff1681526020019081526020016000206000846000191660001916815260200190815260200160002060006101000a81548173ffffffffffffffffffffffffffffffffffffffff021916908373ffffffffffffffffffffffffffffffffffffffff1602179055508273ffffffffffffffffffffffffffffffffffffffff1682600019167f7b6c4b278d165a6b33958f8ea5dfb00c8c9d4d0acf1985bef5d10786898bc3e760006005604051808381526020018260ff1681526020019250505060405180910390a3505050565b60008060008060008060026000886000191660001916815260200190815260200160002090506114b1876122cc565b8160000160009054906101000a900473ffffffffffffffffffffffffffffffffffffffff16826001015483600201548460030154839350955095509550955095505091939590929450565b6000809054906101000a900473ffffffffffffffffffffffffffffffffffffffff1681565b60008060008060008061153689338a8a61108e565b9550600360003373ffffffffffffffffffffffffffffffffffffffff1673ffffffffffffffffffffffffffffffffffffffff1681526020019081526020016000206000876000191660001916815260200190815260200160002060009054906101000a900473ffffffffffffffffffffffffffffffffffffffff16945060008573ffffffffffffffffffffffffffffffffffffffff1614156115d757600080fd5b6000600360003373ffffffffffffffffffffffffffffffffffffffff1673ffffffffffffffffffffffffffffffffffffffff1681526020019081526020016000206000886000191660001916815260200190815260200160002060006101000a81548173ffffffffffffffffffffffffffffffffffffffff021916908373ffffffffffffffffffffffffffffffffffffffff160217905550600260008a60001916600019168152602001908152602001600020935061171c888673ffffffffffffffffffffffffffffffffffffffff16633fa4f2456000604051602001526040518163ffffffff167c0100000000000000000000000000000000000000000000000000000000028152600401602060405180830381600087803b15156116fc57600080fd5b6102c65a03f1151561170d57600080fd5b50505060405180519050613474565b92508473ffffffffffffffffffffffffffffffffffffffff1663b0c809728460016040518363ffffffff167c0100000000000000000000000000000000000000000000000000000000028152600401808381526020018215151515815260200192505050600060405180830381600087803b151561179957600080fd5b6102c65a03f115156117aa57600080fd5b5050506117b6896122cc565b9150600260058111156117c557fe5b8260058111156117d157fe5b14156118be578473ffffffffffffffffffffffffffffffffffffffff1663bbe4277160056040518263ffffffff167c010000000000000000000000000000000000000000000000000000000002815260040180828152602001915050600060405180830381600087803b151561184657600080fd5b6102c65a03f1151561185757600080fd5b5050503373ffffffffffffffffffffffffffffffffffffffff1689600019167f7b6c4b278d165a6b33958f8ea5dfb00c8c9d4d0acf1985bef5d10786898bc3e7856001604051808381526020018260ff1681526020019250505060405180910390a3611e16565b600460058111156118cb57fe5b8260058111156118d757fe5b1415156118e357600080fd5b662386f26fc1000083108061198c57506202a30063ffffffff168460010154038573ffffffffffffffffffffffffffffffffffffffff166305b344106000604051602001526040518163ffffffff167c0100000000000000000000000000000000000000000000000000000000028152600401602060405180830381600087803b151561196f57600080fd5b6102c65a03f1151561198057600080fd5b50505060405180519050115b15611a79578473ffffffffffffffffffffffffffffffffffffffff1663bbe427716103e36040518263ffffffff167c010000000000000000000000000000000000000000000000000000000002815260040180828152602001915050600060405180830381600087803b1515611a0157600080fd5b6102c65a03f11515611a1257600080fd5b5050503373ffffffffffffffffffffffffffffffffffffffff1689600019167f7b6c4b278d165a6b33958f8ea5dfb00c8c9d4d0acf1985bef5d10786898bc3e7856000604051808381526020018260ff1681526020019250505060405180910390a3611e15565b8360030154831115611c325760008460000160009054906101000a900473ffffffffffffffffffffffffffffffffffffffff1673ffffffffffffffffffffffffffffffffffffffff16141515611b75578360000160009054906101000a900473ffffffffffffffffffffffffffffffffffffffff1690508073ffffffffffffffffffffffffffffffffffffffff1663bbe427716103e36040518263ffffffff167c010000000000000000000000000000000000000000000000000000000002815260040180828152602001915050600060405180830381600087803b1515611b6057600080fd5b6102c65a03f11515611b7157600080fd5b5050505b83600301548460020181905550828460030181905550848460000160006101000a81548173ffffffffffffffffffffffffffffffffffffffff021916908373ffffffffffffffffffffffffffffffffffffffff1602179055503373ffffffffffffffffffffffffffffffffffffffff1689600019167f7b6c4b278d165a6b33958f8ea5dfb00c8c9d4d0acf1985bef5d10786898bc3e7856002604051808381526020018260ff1681526020019250505060405180910390a3611e14565b8360020154831115611d2f578284600201819055508473ffffffffffffffffffffffffffffffffffffffff1663bbe427716103e36040518263ffffffff167c010000000000000000000000000000000000000000000000000000000002815260040180828152602001915050600060405180830381600087803b1515611cb757600080fd5b6102c65a03f11515611cc857600080fd5b5050503373ffffffffffffffffffffffffffffffffffffffff1689600019167f7b6c4b278d165a6b33958f8ea5dfb00c8c9d4d0acf1985bef5d10786898bc3e7856003604051808381526020018260ff1681526020019250505060405180910390a3611e13565b8473ffffffffffffffffffffffffffffffffffffffff1663bbe427716103e36040518263ffffffff167c010000000000000000000000000000000000000000000000000000000002815260040180828152602001915050600060405180830381600087803b1515611d9f57600080fd5b6102c65a03f11515611db057600080fd5b5050503373ffffffffffffffffffffffffffffffffffffffff1689600019167f7b6c4b278d165a6b33958f8ea5dfb00c8c9d4d0acf1985bef5d10786898bc3e7856004604051808381526020018260ff1681526020019250505060405180910390a35b5b5b5b505050505050505050565b6000808260026005811115611e3257fe5b611e3b826122cc565b6005811115611e4657fe5b141580611f43575060026000826000191660001916815260200190815260200160002060000160009054906101000a900473ffffffffffffffffffffffffffffffffffffffff1673ffffffffffffffffffffffffffffffffffffffff16638da5cb5b6000604051602001526040518163ffffffff167c0100000000000000000000000000000000000000000000000000000000028152600401602060405180830381600087803b1515611ef857600080fd5b6102c65a03f11515611f0957600080fd5b5050506040518051905073ffffffffffffffffffffffffffffffffffffffff163373ffffffffffffffffffffffffffffffffffffffff1614155b15611f4d57600080fd5b6000809054906101000a900473ffffffffffffffffffffffffffffffffffffffff1673ffffffffffffffffffffffffffffffffffffffff166302571be36001546000604051602001526040518263ffffffff167c0100000000000000000000000000000000000000000000000000000000028152600401808260001916600019168152602001915050602060405180830381600087803b1515611fef57600080fd5b6102c65a03f1151561200057600080fd5b5050506040518051905092503073ffffffffffffffffffffffffffffffffffffffff168373ffffffffffffffffffffffffffffffffffffffff16141561204557600080fd5b60026000856000191660001916815260200190815260200160002091508160000160009054906101000a900473ffffffffffffffffffffffffffffffffffffffff1673ffffffffffffffffffffffffffffffffffffffff1663faab9d39846040518263ffffffff167c0100000000000000000000000000000000000000000000000000000000028152600401808273ffffffffffffffffffffffffffffffffffffffff1673ffffffffffffffffffffffffffffffffffffffff168152602001915050600060405180830381600087803b151561212057600080fd5b6102c65a03f1151561213157600080fd5b5050508273ffffffffffffffffffffffffffffffffffffffff1663ea9e107a858460000160009054906101000a900473ffffffffffffffffffffffffffffffffffffffff1685600101546040518463ffffffff167c01000000000000000000000000000000000000000000000000000000000281526004018084600019166000191681526020018373ffffffffffffffffffffffffffffffffffffffff1673ffffffffffffffffffffffffffffffffffffffff1681526020018281526020019350505050600060405180830381600087803b151561220e57600080fd5b6102c65a03f1151561221f57600080fd5b50505060008260000160006101000a81548173ffffffffffffffffffffffffffffffffffffffff021916908373ffffffffffffffffffffffffffffffffffffffff16021790555060008260010181905550600082600201819055506000826003018190555050505050565b60036020528160005260406000206020528060005260406000206000915091509054906101000a900473ffffffffffffffffffffffffffffffffffffffff1681565b60008060026000846000191660001916815260200190815260200160002090506122f683426125a9565b15156123055760059150612355565b806001015442101561233a576202a30063ffffffff168160010154034210156123315760019150612355565b60049150612355565b6000816003015414156123505760009150612355565b600291505b50919050565b6000826002600581111561236b57fe5b612374826122cc565b600581111561237f57fe5b14158061247c575060026000826000191660001916815260200190815260200160002060000160009054906101000a900473ffffffffffffffffffffffffffffffffffffffff1673ffffffffffffffffffffffffffffffffffffffff16638da5cb5b6000604051602001526040518163ffffffff167c0100000000000000000000000000000000000000000000000000000000028152600401602060405180830381600087803b151561243157600080fd5b6102c65a03f1151561244257600080fd5b5050506040518051905073ffffffffffffffffffffffffffffffffffffffff163373ffffffffffffffffffffffffffffffffffffffff1614155b1561248657600080fd5b60008373ffffffffffffffffffffffffffffffffffffffff1614156124aa57600080fd5b60026000856000191660001916815260200190815260200160002091508160000160009054906101000a900473ffffffffffffffffffffffffffffffffffffffff1673ffffffffffffffffffffffffffffffffffffffff166313af4035846040518263ffffffff167c0100000000000000000000000000000000000000000000000000000000028152600401808273ffffffffffffffffffffffffffffffffffffffff1673ffffffffffffffffffffffffffffffffffffffff168152602001915050600060405180830381600087803b151561258557600080fd5b6102c65a03f1151561259657600080fd5b5050506125a38484613490565b50505050565b60006125b483610b80565b8211905092915050565b600081600260058111156125ce57fe5b6125d7826122cc565b60058111156125e257fe5b1415806126df575060026000826000191660001916815260200190815260200160002060000160009054906101000a900473ffffffffffffffffffffffffffffffffffffffff1673ffffffffffffffffffffffffffffffffffffffff16638da5cb5b6000604051602001526040518163ffffffff167c0100000000000000000000000000000000000000000000000000000000028152600401602060405180830381600087803b151561269457600080fd5b6102c65a03f115156126a557600080fd5b5050506040518051905073ffffffffffffffffffffffffffffffffffffffff163373ffffffffffffffffffffffffffffffffffffffff1614155b156126e957600080fd5b600260008460001916600019168152602001908152602001600020915061271b8260020154662386f26fc10000613458565b82600201819055508160000160009054906101000a900473ffffffffffffffffffffffffffffffffffffffff1673ffffffffffffffffffffffffffffffffffffffff1663b0c80972836002015460016040518363ffffffff167c0100000000000000000000000000000000000000000000000000000000028152600401808381526020018215151515815260200192505050600060405180830381600087803b15156127c657600080fd5b6102c65a03f115156127d757600080fd5b50505061288e838360000160009054906101000a900473ffffffffffffffffffffffffffffffffffffffff1673ffffffffffffffffffffffffffffffffffffffff16638da5cb5b6000604051602001526040518163ffffffff167c0100000000000000000000000000000000000000000000000000000000028152600401602060405180830381600087803b151561286e57600080fd5b6102c65a03f1151561287f57600080fd5b50505060405180519050613490565b8160000160009054906101000a900473ffffffffffffffffffffffffffffffffffffffff1673ffffffffffffffffffffffffffffffffffffffff16638da5cb5b6000604051602001526040518163ffffffff167c0100000000000000000000000000000000000000000000000000000000028152600401602060405180830381600087803b151561291e57600080fd5b6102c65a03f1151561292f57600080fd5b5050506040518051905073ffffffffffffffffffffffffffffffffffffffff1683600019167f0f0c27adfd84b60b6f456b0e87cdccb1e5fb9603991588d87fa99f5b6b61e67084600201548560010154604051808381526020018281526020019250505060405180910390a3505050565b60045481565b6249d40081565b600080600360003373ffffffffffffffffffffffffffffffffffffffff1673ffffffffffffffffffffffffffffffffffffffff1681526020019081526020016000206000846000191660001916815260200190815260200160002060009054906101000a900473ffffffffffffffffffffffffffffffffffffffff1673ffffffffffffffffffffffffffffffffffffffff161115612a4a57600080fd5b662386f26fc10000341015612a5e57600080fd5b3433612a68613974565b808273ffffffffffffffffffffffffffffffffffffffff1673ffffffffffffffffffffffffffffffffffffffff1681526020019150506040518091039082f0801515612ab357600080fd5b9050905080600360003373ffffffffffffffffffffffffffffffffffffffff1673ffffffffffffffffffffffffffffffffffffffff1681526020019081526020016000206000846000191660001916815260200190815260200160002060006101000a81548173ffffffffffffffffffffffffffffffffffffffff021916908373ffffffffffffffffffffffffffffffffffffffff1602179055503373ffffffffffffffffffffffffffffffffffffffff1682600019167fb556ff269c1b6714f432c36431e2041d28436a73b6c3f19c021827bbdc6bfc29346040518082815260200191505060405180910390a35050565b600081511415612bb457600080fd5b60026005811115612bc157fe5b612be5826001845103815181101515612bd657fe5b906020019060200201516122cc565b6005811115612bf057fe5b1415612bfb57600080fd5b612c0c600182510382600154613676565b50565b6000803433612c1c613974565b808273ffffffffffffffffffffffffffffffffffffffff1673ffffffffffffffffffffffffffffffffffffffff1681526020019150506040518091039082f0801515612c6757600080fd5b9050915081600360003373ffffffffffffffffffffffffffffffffffffffff1673ffffffffffffffffffffffffffffffffffffffff1681526020019081526020016000206000806001026000191660001916815260200190815260200160002060006101000a81548173ffffffffffffffffffffffffffffffffffffffff021916908373ffffffffffffffffffffffffffffffffffffffff16021790555060026000846000191660001916815260200190815260200160002090506207e90042038160010181905550348160020181905550348160030181905550818160000160006101000a81548173ffffffffffffffffffffffffffffffffffffffff021916908373ffffffffffffffffffffffffffffffffffffffff160217905550612d8f8333613490565b505050565b60008090505b8151811015612dd057612dc38282815181101515612db457fe5b90602001906020020151612dd9565b8080600101915050612d9a565b5050565b505050565b600080600454421080612df35750630784ce006004540142115b80612ee657503073ffffffffffffffffffffffffffffffffffffffff166000809054906101000a900473ffffffffffffffffffffffffffffffffffffffff1673ffffffffffffffffffffffffffffffffffffffff166302571be36001546000604051602001526040518263ffffffff167c0100000000000000000000000000000000000000000000000000000000028152600401808260001916600019168152602001915050602060405180830381600087803b1515612eb257600080fd5b6102c65a03f11515612ec357600080fd5b5050506040518051905073ffffffffffffffffffffffffffffffffffffffff1614155b15612ef057600080fd5b612ef9836122cc565b915060016005811115612f0857fe5b826005811115612f1457fe5b1415612f1f57612fca565b60006005811115612f2c57fe5b826005811115612f3857fe5b141515612f4457600080fd5b60026000846000191660001916815260200190815260200160002090506206978063ffffffff1642018160010181905550600081600201819055506000816003018190555082600019167f87e97e825a1d1fa0c54e1d36c7506c1dea8b1efd451fe68b000cf96f7cf4000382600101546040518082815260200191505060405180910390a25b505050565b60015481565b612fde82612d94565b612fe7816129ad565b5050565b60003073ffffffffffffffffffffffffffffffffffffffff166000809054906101000a900473ffffffffffffffffffffffffffffffffffffffff1673ffffffffffffffffffffffffffffffffffffffff166302571be36001546000604051602001526040518263ffffffff167c0100000000000000000000000000000000000000000000000000000000028152600401808260001916600019168152602001915050602060405180830381600087803b15156130a657600080fd5b6102c65a03f115156130b757600080fd5b5050506040518051905073ffffffffffffffffffffffffffffffffffffffff161415613395576000809054906101000a900473ffffffffffffffffffffffffffffffffffffffff1673ffffffffffffffffffffffffffffffffffffffff166306ab592360015484306040518463ffffffff167c010000000000000000000000000000000000000000000000000000000002815260040180846000191660001916815260200183600019166000191681526020018273ffffffffffffffffffffffffffffffffffffffff1673ffffffffffffffffffffffffffffffffffffffff1681526020019350505050600060405180830381600087803b15156131ba57600080fd5b6102c65a03f115156131cb57600080fd5b50505060015482604051808360001916600019168152602001826000191660001916815260200192505050604051809103902090506000809054906101000a900473ffffffffffffffffffffffffffffffffffffffff1673ffffffffffffffffffffffffffffffffffffffff16631896f70a8260006040518363ffffffff167c01000000000000000000000000000000000000000000000000000000000281526004018083600019166000191681526020018273ffffffffffffffffffffffffffffffffffffffff16815260200192505050600060405180830381600087803b15156132b657600080fd5b6102c65a03f115156132c757600080fd5b5050506000809054906101000a900473ffffffffffffffffffffffffffffffffffffffff1673ffffffffffffffffffffffffffffffffffffffff16635b0fc9c38260006040518363ffffffff167c01000000000000000000000000000000000000000000000000000000000281526004018083600019166000191681526020018273ffffffffffffffffffffffffffffffffffffffff16815260200192505050600060405180830381600087803b151561338057600080fd5b6102c65a03f1151561339157600080fd5b5050505b5050565b6000806000806000600186019350838651019250600091505b8284101561344c5760ff845116905060808160ff1610156133d85760018401935061343f565b60e08160ff1610156133ef5760028401935061343e565b60f08160ff1610156134065760038401935061343d565b60f88160ff16101561341d5760048401935061343c565b60fc8160ff1610156134345760058401935061343b565b6006840193505b5b5b5b5b81806001019250506133b2565b81945050505050919050565b60008183111561346a5782905061346e565b8190505b92915050565b6000818310156134865782905061348a565b8190505b92915050565b3073ffffffffffffffffffffffffffffffffffffffff166000809054906101000a900473ffffffffffffffffffffffffffffffffffffffff1673ffffffffffffffffffffffffffffffffffffffff166302571be36001546000604051602001526040518263ffffffff167c0100000000000000000000000000000000000000000000000000000000028152600401808260001916600019168152602001915050602060405180830381600087803b151561354957600080fd5b6102c65a03f1151561355a57600080fd5b5050506040518051905073ffffffffffffffffffffffffffffffffffffffff161415613672576000809054906101000a900473ffffffffffffffffffffffffffffffffffffffff1673ffffffffffffffffffffffffffffffffffffffff166306ab592360015484846040518463ffffffff167c010000000000000000000000000000000000000000000000000000000002815260040180846000191660001916815260200183600019166000191681526020018273ffffffffffffffffffffffffffffffffffffffff1673ffffffffffffffffffffffffffffffffffffffff1681526020019350505050600060405180830381600087803b151561365d57600080fd5b6102c65a03f1151561366e57600080fd5b5050505b5050565b6000809054906101000a900473ffffffffffffffffffffffffffffffffffffffff1673ffffffffffffffffffffffffffffffffffffffff166306ab59238284868151811015156136c257fe5b90602001906020020151306040518463ffffffff167c010000000000000000000000000000000000000000000000000000000002815260040180846000191660001916815260200183600019166000191681526020018273ffffffffffffffffffffffffffffffffffffffff1673ffffffffffffffffffffffffffffffffffffffff1681526020019350505050600060405180830381600087803b151561376857600080fd5b6102c65a03f1151561377957600080fd5b50505080828481518110151561378b57fe5b906020019060200201516040518083600019166000191681526020018260001916600019168152602001925050506040518091039020905060008311156137db576137da600184038383613676565b5b6000809054906101000a900473ffffffffffffffffffffffffffffffffffffffff1673ffffffffffffffffffffffffffffffffffffffff16631896f70a8260006040518363ffffffff167c01000000000000000000000000000000000000000000000000000000000281526004018083600019166000191681526020018273ffffffffffffffffffffffffffffffffffffffff16815260200192505050600060405180830381600087803b151561389157600080fd5b6102c65a03f115156138a257600080fd5b5050506000809054906101000a900473ffffffffffffffffffffffffffffffffffffffff1673ffffffffffffffffffffffffffffffffffffffff16635b0fc9c38260006040518363ffffffff167c01000000000000000000000000000000000000000000000000000000000281526004018083600019166000191681526020018273ffffffffffffffffffffffffffffffffffffffff16815260200192505050600060405180830381600087803b151561395b57600080fd5b6102c65a03f1151561396c57600080fd5b505050505050565b60405161096e80613985833901905600606060405260405160208061096e8339810160405280805190602001909190505080600260006101000a81548173ffffffffffffffffffffffffffffffffffffffff021916908373ffffffffffffffffffffffffffffffffffffffff160217905550336000806101000a81548173ffffffffffffffffffffffffffffffffffffffff021916908373ffffffffffffffffffffffffffffffffffffffff160217905550426001819055506001600560006101000a81548160ff0219169083151502179055503460048190555050610894806100da6000396000f3006060604052600436106100a4576000357c0100000000000000000000000000000000000000000000000000000000900463ffffffff16806305b34410146100a95780630b5ab3d5146100d257806313af4035146100e75780632b20e397146101205780633fa4f24514610175578063674f220f1461019e5780638da5cb5b146101f3578063b0c8097214610248578063bbe4277114610276578063faab9d3914610299575b600080fd5b34156100b457600080fd5b6100bc6102d2565b6040518082815260200191505060405180910390f35b34156100dd57600080fd5b6100e56102d8565b005b34156100f257600080fd5b61011e600480803573ffffffffffffffffffffffffffffffffffffffff16906020019091905050610382565b005b341561012b57600080fd5b61013361050b565b604051808273ffffffffffffffffffffffffffffffffffffffff1673ffffffffffffffffffffffffffffffffffffffff16815260200191505060405180910390f35b341561018057600080fd5b610188610530565b6040518082815260200191505060405180910390f35b34156101a957600080fd5b6101b1610536565b604051808273ffffffffffffffffffffffffffffffffffffffff1673ffffffffffffffffffffffffffffffffffffffff16815260200191505060405180910390f35b34156101fe57600080fd5b61020661055c565b604051808273ffffffffffffffffffffffffffffffffffffffff1673ffffffffffffffffffffffffffffffffffffffff16815260200191505060405180910390f35b341561025357600080fd5b61027460048080359060200190919080351515906020019091905050610582565b005b341561028157600080fd5b6102976004808035906020019091905050610696565b005b34156102a457600080fd5b6102d0600480803573ffffffffffffffffffffffffffffffffffffffff169060200190919050506107ca565b005b60015481565b600560009054906101000a900460ff16156102f257600080fd5b600260009054906101000a900473ffffffffffffffffffffffffffffffffffffffff1673ffffffffffffffffffffffffffffffffffffffff166108fc3073ffffffffffffffffffffffffffffffffffffffff16319081150290604051600060405180830381858888f19350505050156103805761dead73ffffffffffffffffffffffffffffffffffffffff16ff5b565b6000809054906101000a900473ffffffffffffffffffffffffffffffffffffffff1673ffffffffffffffffffffffffffffffffffffffff163373ffffffffffffffffffffffffffffffffffffffff161415156103dd57600080fd5b60008173ffffffffffffffffffffffffffffffffffffffff16141561040157600080fd5b600260009054906101000a900473ffffffffffffffffffffffffffffffffffffffff16600360006101000a81548173ffffffffffffffffffffffffffffffffffffffff021916908373ffffffffffffffffffffffffffffffffffffffff16021790555080600260006101000a81548173ffffffffffffffffffffffffffffffffffffffff021916908373ffffffffffffffffffffffffffffffffffffffff1602179055507fa2ea9883a321a3e97b8266c2b078bfeec6d50c711ed71f874a90d500ae2eaf3681604051808273ffffffffffffffffffffffffffffffffffffffff1673ffffffffffffffffffffffffffffffffffffffff16815260200191505060405180910390a150565b6000809054906101000a900473ffffffffffffffffffffffffffffffffffffffff1681565b60045481565b600360009054906101000a900473ffffffffffffffffffffffffffffffffffffffff1681565b600260009054906101000a900473ffffffffffffffffffffffffffffffffffffffff1681565b6000809054906101000a900473ffffffffffffffffffffffffffffffffffffffff1673ffffffffffffffffffffffffffffffffffffffff163373ffffffffffffffffffffffffffffffffffffffff161415156105dd57600080fd5b600560009054906101000a900460ff1615156105f857600080fd5b81600454101561060757600080fd5b81600481905550600260009054906101000a900473ffffffffffffffffffffffffffffffffffffffff1673ffffffffffffffffffffffffffffffffffffffff166108fc833073ffffffffffffffffffffffffffffffffffffffff1631039081150290604051600060405180830381858888f193505050501580156106885750805b1561069257600080fd5b5050565b6000809054906101000a900473ffffffffffffffffffffffffffffffffffffffff1673ffffffffffffffffffffffffffffffffffffffff163373ffffffffffffffffffffffffffffffffffffffff161415156106f157600080fd5b600560009054906101000a900460ff16151561070c57600080fd5b6000600560006101000a81548160ff02191690831515021790555061dead73ffffffffffffffffffffffffffffffffffffffff166108fc6103e83073ffffffffffffffffffffffffffffffffffffffff1631846103e8030281151561076d57fe5b049081150290604051600060405180830381858888f19350505050151561079357600080fd5b7fbb2ce2f51803bba16bc85282b47deeea9a5c6223eabea1077be696b3f265cf1360405160405180910390a16107c76102d8565b50565b6000809054906101000a900473ffffffffffffffffffffffffffffffffffffffff1673ffffffffffffffffffffffffffffffffffffffff163373ffffffffffffffffffffffffffffffffffffffff1614151561082557600080fd5b806000806101000a81548173ffffffffffffffffffffffffffffffffffffffff021916908373ffffffffffffffffffffffffffffffffffffffff160217905550505600a165627a7a723058204ad3547f6bfa81da818cee30f7a41dedb575e0bbf57ce5e5bdb7ece648871d530029a165627a7a72305820c57468704ae34feda9a7f992f3e421a94e135f81b2ac86d879f55badf1ed03430029",
  "source": "pragma solidity ^0.4.18;\n\n\n/*\n\nTemporary Hash Registrar\n========================\n\nThis is a simplified version of a hash registrar. It is purporsefully limited:\nnames cannot be six letters or shorter, new auctions will stop after 4 years.\n\nThe plan is to test the basic features and then move to a new contract in at most\n2 years, when some sort of renewal mechanism will be enabled.\n*/\n\n\nimport './AbstractENS.sol';\n\n\n/**\n * @title Deed to hold ether in exchange for ownership of a node\n * @dev The deed can be controlled only by the registrar and can only send ether back to the owner.\n */\ncontract Deed {\n    address public registrar;\n    address constant burn = 0xdead;\n    uint public creationDate;\n    address public owner;\n    address public previousOwner;\n    uint public value;\n    event OwnerChanged(address newOwner);\n    event DeedClosed();\n    bool active;\n\n    modifier onlyRegistrar {\n        if (msg.sender != registrar) throw;\n        _;\n    }\n\n    modifier onlyActive {\n        if (!active) throw;\n        _;\n    }\n\n    function Deed(address _owner) payable {\n        owner = _owner;\n        registrar = msg.sender;\n        creationDate = now;\n        active = true;\n        value = msg.value;\n    }\n\n    function setOwner(address newOwner) onlyRegistrar {\n        if (newOwner == 0) throw;\n        previousOwner = owner;  // This allows contracts to check who sent them the ownership\n        owner = newOwner;\n        OwnerChanged(newOwner);\n    }\n\n    function setRegistrar(address newRegistrar) onlyRegistrar {\n        registrar = newRegistrar;\n    }\n\n    function setBalance(uint newValue, bool throwOnFailure) onlyRegistrar onlyActive {\n        // Check if it has enough balance to set the value\n        if (value < newValue) throw;\n        value = newValue;\n        // Send the difference to the owner\n        if (!owner.send(this.balance - newValue) && throwOnFailure) throw;\n    }\n\n    /**\n     * @dev Close a deed and refund a specified fraction of the bid value\n     *\n     * @param refundRatio The amount*1/1000 to refund\n     */\n    function closeDeed(uint refundRatio) onlyRegistrar onlyActive {\n        active = false;\n        if (! burn.send(((1000 - refundRatio) * this.balance)/1000)) throw;\n        DeedClosed();\n        destroyDeed();\n    }\n\n    /**\n     * @dev Close a deed and refund a specified fraction of the bid value\n     */\n    function destroyDeed() {\n        if (active) throw;\n\n        // Instead of selfdestruct(owner), invoke owner fallback function to allow\n        // owner to log an event if desired; but owner should also be aware that\n        // its fallback function can also be invoked by setBalance\n        if (owner.send(this.balance)) {\n            selfdestruct(burn);\n        }\n    }\n}\n\n/**\n * @title Registrar\n * @dev The registrar handles the auction process for each subnode of the node it owns.\n */\ncontract Registrar {\n    AbstractENS public ens;\n    bytes32 public rootNode;\n\n    mapping (bytes32 => entry) _entries;\n    mapping (address => mapping(bytes32 => Deed)) public sealedBids;\n\n    enum Mode { Open, Auction, Owned, Forbidden, Reveal, NotYetAvailable }\n\n    uint32 constant totalAuctionLength = 5 days;\n    uint32 constant revealPeriod = 48 hours;\n    uint32 public constant launchLength = 8 weeks;\n\n    uint constant minPrice = 0.01 ether;\n    uint public registryStarted;\n\n    event AuctionStarted(bytes32 indexed hash, uint registrationDate);\n    event NewBid(bytes32 indexed hash, address indexed bidder, uint deposit);\n    event BidRevealed(bytes32 indexed hash, address indexed owner, uint value, uint8 status);\n    event HashRegistered(bytes32 indexed hash, address indexed owner, uint value, uint registrationDate);\n    event HashReleased(bytes32 indexed hash, uint value);\n    event HashInvalidated(bytes32 indexed hash, string indexed name, uint value, uint registrationDate);\n\n    struct entry {\n    Deed deed;\n    uint registrationDate;\n    uint value;\n    uint highestBid;\n    }\n\n    // State transitions for names:\n    //   Open -> Auction (startAuction)\n    //   Auction -> Reveal\n    //   Reveal -> Owned\n    //   Reveal -> Open (if nobody bid)\n    //   Owned -> Open (releaseDeed or invalidateName)\n    function state(bytes32 _hash) constant returns (Mode) {\n        var entry = _entries[_hash];\n        if (!isAllowed(_hash, now)) {\n            return Mode.NotYetAvailable;\n        } else if (now < entry.registrationDate) {\n            if (now < entry.registrationDate - revealPeriod) {\n                return Mode.Auction;\n            } else {\n                return Mode.Reveal;\n            }\n        } else {\n            if (entry.highestBid == 0) {\n                return Mode.Open;\n            } else {\n                return Mode.Owned;\n            }\n        }\n    }\n\n    modifier inState(bytes32 _hash, Mode _state) {\n        if (state(_hash) != _state) throw;\n        _;\n    }\n\n    modifier onlyOwner(bytes32 _hash) {\n        if (state(_hash) != Mode.Owned || msg.sender != _entries[_hash].deed.owner()) throw;\n        _;\n    }\n\n    modifier registryOpen() {\n        if (now < registryStarted  || now > registryStarted + 4 years || ens.owner(rootNode) != address(this)) throw;\n        _;\n    }\n\n    function entries(bytes32 _hash) constant returns (Mode, address, uint, uint, uint) {\n        entry h = _entries[_hash];\n        return (state(_hash), h.deed, h.registrationDate, h.value, h.highestBid);\n    }\n\n    /**\n     * @dev Constructs a new Registrar, with the provided address as the owner of the root node.\n     *\n     * @param _ens The address of the ENS\n     * @param _rootNode The hash of the rootnode.\n     */\n    function Registrar(AbstractENS _ens, bytes32 _rootNode, uint _startDate) {\n        ens = _ens;\n        rootNode = _rootNode;\n        registryStarted = _startDate > 0 ? _startDate : now;\n    }\n\n    /**\n     * @dev Returns the maximum of two unsigned integers\n     *\n     * @param a A number to compare\n     * @param b A number to compare\n     * @return The maximum of two unsigned integers\n     */\n    function max(uint a, uint b) internal constant returns (uint max) {\n        if (a > b)\n        return a;\n        else\n        return b;\n    }\n\n    /**\n     * @dev Returns the minimum of two unsigned integers\n     *\n     * @param a A number to compare\n     * @param b A number to compare\n     * @return The minimum of two unsigned integers\n     */\n    function min(uint a, uint b) internal constant returns (uint min) {\n        if (a < b)\n        return a;\n        else\n        return b;\n    }\n\n    /**\n     * @dev Returns the length of a given string\n     *\n     * @param s The string to measure the length of\n     * @return The length of the input string\n     */\n    function strlen(string s) internal constant returns (uint) {\n        s; // Don't warn about unused variables\n        // Starting here means the LSB will be the byte we care about\n        uint ptr;\n        uint end;\n        assembly {\n        ptr := add(s, 1)\n        end := add(mload(s), ptr)\n        }\n        for (uint len = 0; ptr < end; len++) {\n            uint8 b;\n            assembly { b := and(mload(ptr), 0xFF) }\n            if (b < 0x80) {\n                ptr += 1;\n            } else if (b < 0xE0) {\n                ptr += 2;\n            } else if (b < 0xF0) {\n                ptr += 3;\n            } else if (b < 0xF8) {\n                ptr += 4;\n            } else if (b < 0xFC) {\n                ptr += 5;\n            } else {\n                ptr += 6;\n            }\n        }\n        return len;\n    }\n\n    /**\n     * @dev Determines if a name is available for registration yet\n     *\n     * Each name will be assigned a random date in which its auction\n     * can be started, from 0 to 8 weeks\n     *\n     * @param _hash The hash to start an auction on\n     * @param _timestamp The timestamp to query about\n     */\n    function isAllowed(bytes32 _hash, uint _timestamp) constant returns (bool allowed){\n        return _timestamp > getAllowedTime(_hash);\n    }\n\n    /**\n     * @dev Returns available date for hash\n     *\n     * The available time from the `registryStarted` for a hash is proportional\n     * to its numeric value.\n     *\n     * @param _hash The hash to start an auction on\n     */\n    function getAllowedTime(bytes32 _hash) constant returns (uint timestamp) {\n        return registryStarted + ((launchLength * (uint(_hash) >> 128)) >> 128);\n        // Right shift operator: a >> b == a / 2**b\n    }\n\n    /**\n     * @dev Assign the owner in ENS, if we're still the registrar\n     *\n     * @param _hash hash to change owner\n     * @param _newOwner new owner to transfer to\n     */\n    function trySetSubnodeOwner(bytes32 _hash, address _newOwner) internal {\n        if (ens.owner(rootNode) == address(this))\n        ens.setSubnodeOwner(rootNode, _hash, _newOwner);\n    }\n\n    /**\n     * @dev Start an auction for an available hash\n     *\n     * @param _hash The hash to start an auction on\n     */\n    function startAuction(bytes32 _hash) registryOpen() {\n        var mode = state(_hash);\n        if (mode == Mode.Auction) return;\n        if (mode != Mode.Open) throw;\n\n        entry newAuction = _entries[_hash];\n        newAuction.registrationDate = now + totalAuctionLength;\n        newAuction.value = 0;\n        newAuction.highestBid = 0;\n        AuctionStarted(_hash, newAuction.registrationDate);\n    }\n\n    /**\n     * @dev Start multiple auctions for better anonymity\n     *\n     * Anyone can start an auction by sending an array of hashes that they want to bid for.\n     * Arrays are sent so that someone can open up an auction for X dummy hashes when they\n     * are only really interested in bidding for one. This will increase the cost for an\n     * attacker to simply bid blindly on all new auctions. Dummy auctions that are\n     * open but not bid on are closed after a week.\n     *\n     * @param _hashes An array of hashes, at least one of which you presumably want to bid on\n     */\n    function startAuctions(bytes32[] _hashes)  {\n        for (uint i = 0; i < _hashes.length; i ++) {\n            startAuction(_hashes[i]);\n        }\n    }\n\n    /**\n     * @dev Hash the values required for a secret bid\n     *\n     * @param hash The node corresponding to the desired namehash\n     * @param value The bid amount\n     * @param salt A random value to ensure secrecy of the bid\n     * @return The hash of the bid values\n     */\n    function shaBid(bytes32 hash, address owner, uint value, bytes32 salt) constant returns (bytes32 sealedBid) {\n        return sha3(hash, owner, value, salt);\n    }\n\n    /**\n     * @dev Submit a new sealed bid on a desired hash in a blind auction\n     *\n     * Bids are sent by sending a message to the main contract with a hash and an amount. The hash\n     * contains information about the bid, including the bidded hash, the bid amount, and a random\n     * salt. Bids are not tied to any one auction until they are revealed. The value of the bid\n     * itself can be masqueraded by sending more than the value of your actual bid. This is\n     * followed by a 48h reveal period. Bids revealed after this period will be burned and the ether unrecoverable.\n     * Since this is an auction, it is expected that most public hashes, like known domains and common dictionary\n     * words, will have multiple bidders pushing the price up.\n     *\n     * @param sealedBid A sealedBid, created by the shaBid function\n     */\n    function newBid(bytes32 sealedBid) payable {\n        if (address(sealedBids[msg.sender][sealedBid]) > 0) throw;\n        if (msg.value < minPrice) throw;\n\n        // Creates a new hash contract with the owner\n        Deed newBid = (new Deed).value(msg.value)(msg.sender);\n        sealedBids[msg.sender][sealedBid] = newBid;\n        NewBid(sealedBid, msg.sender, msg.value);\n    }\n\n    /**\n     * @dev Start a set of auctions and bid on one of them\n     *\n     * This method functions identically to calling `startAuctions` followed by `newBid`,\n     * but all in one transaction.\n     *\n     * @param hashes A list of hashes to start auctions on.\n     * @param sealedBid A sealed bid for one of the auctions.\n     */\n    function startAuctionsAndBid(bytes32[] hashes, bytes32 sealedBid) payable {\n        startAuctions(hashes);\n        newBid(sealedBid);\n    }\n\n    /**\n     * @dev Submit the properties of a bid to reveal them\n     *\n     * @param _hash The node in the sealedBid\n     * @param _value The bid amount in the sealedBid\n     * @param _salt The sale in the sealedBid\n     */\n    function unsealBid(bytes32 _hash, uint _value, bytes32 _salt) {\n        bytes32 seal = shaBid(_hash, msg.sender, _value, _salt);\n        Deed bid = sealedBids[msg.sender][seal];\n        if (address(bid) == 0) throw;\n\n        sealedBids[msg.sender][seal] = Deed(0);\n        entry h = _entries[_hash];\n        uint value = min(_value, bid.value());\n        bid.setBalance(value, true);\n\n        var auctionState = state(_hash);\n        if (auctionState == Mode.Owned) {\n            // Too late! Bidder loses their bid. Gets 0.5% back.\n            bid.closeDeed(5);\n            BidRevealed(_hash, msg.sender, value, 1);\n        } else if (auctionState != Mode.Reveal) {\n            // Invalid phase\n            throw;\n        } else if (value < minPrice || bid.creationDate() > h.registrationDate - revealPeriod) {\n            // Bid too low or too late, refund 99.5%\n            bid.closeDeed(995);\n            BidRevealed(_hash, msg.sender, value, 0);\n        } else if (value > h.highestBid) {\n            // New winner\n            // Cancel the other bid, refund 99.5%\n            if (address(h.deed) != 0) {\n                Deed previousWinner = h.deed;\n                previousWinner.closeDeed(995);\n            }\n\n            // Set new winner\n            // Per the rules of a vickery auction, the value becomes the previous highestBid\n            h.value = h.highestBid;  // will be zero if there's only 1 bidder\n            h.highestBid = value;\n            h.deed = bid;\n            BidRevealed(_hash, msg.sender, value, 2);\n        } else if (value > h.value) {\n            // Not winner, but affects second place\n            h.value = value;\n            bid.closeDeed(995);\n            BidRevealed(_hash, msg.sender, value, 3);\n        } else {\n            // Bid doesn't affect auction\n            bid.closeDeed(995);\n            BidRevealed(_hash, msg.sender, value, 4);\n        }\n    }\n\n    /**\n     * @dev Cancel a bid\n     *\n     * @param seal The value returned by the shaBid function\n     */\n    function cancelBid(address bidder, bytes32 seal) {\n        Deed bid = sealedBids[bidder][seal];\n\n        // If a sole bidder does not `unsealBid` in time, they have a few more days\n        // where they can call `startAuction` (again) and then `unsealBid` during\n        // the revealPeriod to get back their bid value.\n        // For simplicity, they should call `startAuction` within\n        // 9 days (2 weeks - totalAuctionLength), otherwise their bid will be\n        // cancellable by anyone.\n        if (address(bid) == 0\n        || now < bid.creationDate() + totalAuctionLength + 2 weeks) throw;\n\n        // Send the canceller 0.5% of the bid, and burn the rest.\n        bid.setOwner(msg.sender);\n        bid.closeDeed(5);\n        sealedBids[bidder][seal] = Deed(0);\n        BidRevealed(seal, bidder, 0, 5);\n    }\n\n    /**\n     * @dev Finalize an auction after the registration date has passed\n     *\n     * @param _hash The hash of the name the auction is for\n     */\n    function finalizeAuction(bytes32 _hash) onlyOwner(_hash) {\n        entry h = _entries[_hash];\n\n        // Handles the case when there's only a single bidder (h.value is zero)\n        h.value =  max(h.value, minPrice);\n        h.deed.setBalance(h.value, true);\n\n        trySetSubnodeOwner(_hash, h.deed.owner());\n        HashRegistered(_hash, h.deed.owner(), h.value, h.registrationDate);\n    }\n\n    /**\n     * @dev The owner of a domain may transfer it to someone else at any time.\n     *\n     * @param _hash The node to transfer\n     * @param newOwner The address to transfer ownership to\n     */\n    function transfer(bytes32 _hash, address newOwner) onlyOwner(_hash) {\n        if (newOwner == 0) throw;\n\n        entry h = _entries[_hash];\n        h.deed.setOwner(newOwner);\n        trySetSubnodeOwner(_hash, newOwner);\n    }\n\n    /**\n     * @dev After some time, or if we're no longer the registrar, the owner can release\n     *      the name and get their ether back.\n     *\n     * @param _hash The node to release\n     */\n    function releaseDeed(bytes32 _hash) onlyOwner(_hash) {\n        entry h = _entries[_hash];\n        Deed deedContract = h.deed;\n        if (now < h.registrationDate + 1 years && ens.owner(rootNode) == address(this)) throw;\n\n        h.value = 0;\n        h.highestBid = 0;\n        h.deed = Deed(0);\n\n        _tryEraseSingleNode(_hash);\n        deedContract.closeDeed(1000);\n        HashReleased(_hash, h.value);\n    }\n\n    /**\n     * @dev Submit a name 6 characters long or less. If it has been registered,\n     *      the submitter will earn 50% of the deed value.\n     *\n     * We are purposefully handicapping the simplified registrar as a way\n     * to force it into being restructured in a few years.\n     *\n     * @param unhashedName An invalid name to search for in the registry.\n     */\n    function invalidateName(string unhashedName) inState(sha3(unhashedName), Mode.Owned) {\n        if (strlen(unhashedName) > 6) throw;\n        bytes32 hash = sha3(unhashedName);\n\n        entry h = _entries[hash];\n\n        _tryEraseSingleNode(hash);\n\n        if (address(h.deed) != 0) {\n            // Reward the discoverer with 50% of the deed\n            // The previous owner gets 50%\n            h.value = max(h.value, minPrice);\n            h.deed.setBalance(h.value/2, false);\n            h.deed.setOwner(msg.sender);\n            h.deed.closeDeed(1000);\n        }\n\n        HashInvalidated(hash, unhashedName, h.value, h.registrationDate);\n\n        h.value = 0;\n        h.highestBid = 0;\n        h.deed = Deed(0);\n    }\n\n    /**\n     * @dev Allows anyone to delete the owner and resolver records for a (subdomain of) a\n     *      name that is not currently owned in the registrar. If passing, eg, 'foo.bar.eth',\n     *      the owner and resolver fields on 'foo.bar.eth' and 'bar.eth' will all be cleared.\n     *\n     * @param labels A series of label hashes identifying the name to zero out, rooted at the\n     *        registrar's root. Must contain at least one element. For instance, to zero\n     *        'foo.bar.eth' on a registrar that owns '.eth', pass an array containing\n     *        [sha3('foo'), sha3('bar')].\n     */\n    function eraseNode(bytes32[] labels) {\n        if (labels.length == 0) throw;\n        if (state(labels[labels.length - 1]) == Mode.Owned) throw;\n\n        _eraseNodeHierarchy(labels.length - 1, labels, rootNode);\n    }\n\n    function _tryEraseSingleNode(bytes32 label) internal {\n        if (ens.owner(rootNode) == address(this)) {\n            ens.setSubnodeOwner(rootNode, label, address(this));\n            var node = sha3(rootNode, label);\n            ens.setResolver(node, 0);\n            ens.setOwner(node, 0);\n        }\n    }\n\n    function _eraseNodeHierarchy(uint idx, bytes32[] labels, bytes32 node) internal {\n        // Take ownership of the node\n        ens.setSubnodeOwner(node, labels[idx], address(this));\n        node = sha3(node, labels[idx]);\n\n        // Recurse if there are more labels\n        if (idx > 0) {\n            _eraseNodeHierarchy(idx - 1, labels, node);\n        }\n\n        // Erase the resolver and owner records\n        ens.setResolver(node, 0);\n        ens.setOwner(node, 0);\n    }\n\n    /**\n     * @dev Transfers the deed to the current registrar, if different from this one.\n     *\n     * Used during the upgrade process to a permanent registrar.\n     *\n     * @param _hash The name hash to transfer.\n     */\n    function transferRegistrars(bytes32 _hash) onlyOwner(_hash) {\n        var registrar = ens.owner(rootNode);\n        if (registrar == address(this)) throw;\n\n        // Migrate the deed\n        entry h = _entries[_hash];\n        h.deed.setRegistrar(registrar);\n\n        // Call the new registrar to accept the transfer\n        Registrar(registrar).acceptRegistrarTransfer(_hash, h.deed, h.registrationDate);\n\n        // Zero out the entry\n        h.deed = Deed(0);\n        h.registrationDate = 0;\n        h.value = 0;\n        h.highestBid = 0;\n    }\n\n    /**\n     * @dev Accepts a transfer from a previous registrar; stubbed out here since there\n     *      is no previous registrar implementing this interface.\n     *\n     * @param hash The sha3 hash of the label to transfer.\n     * @param deed The Deed object for the name being transferred in.\n     * @param registrationDate The date at which the name was originally registered.\n     */\n    function acceptRegistrarTransfer(bytes32 hash, Deed deed, uint registrationDate) {\n        hash; deed; registrationDate; // Don't warn about unused variables\n    }\n\n    /**\n     * @dev Convenience function added by NameBazaar for instant registration\n     *      used for development only\n     *\n     * @param _hash The sha3 hash of the label to register.\n     */\n    function register(bytes32 _hash) payable {\n        Deed bid = (new Deed).value(msg.value)(msg.sender);\n        sealedBids[msg.sender][bytes32(0)] = bid;\n        entry newAuction = _entries[_hash];\n        newAuction.registrationDate = now - 6 days;\n        newAuction.value = msg.value;\n        newAuction.highestBid = msg.value;\n        newAuction.deed = bid;\n        trySetSubnodeOwner(_hash, msg.sender);\n    }\n\n}\n",
  "sourcePath": "/Users/anduril/ens-playground/contracts/HashRegistrarSimplified.sol",
  "compiler": {
    "name": "solc",
    "version": "0.4.18+commit.9cf6e910.Emscripten.clang"
  },
  "schemaVersion": "1.0.1",
  "updatedAt": "2017-12-18T19:31:39.117Z"
}