{
  "contractName": "ReverseRegistrar",
  "abi": [
    {
      "constant": false,
      "inputs": [
        {
          "name": "owner",
          "type": "address"
        },
        {
          "name": "resolver",
          "type": "address"
        }
      ],
      "name": "claimWithResolver",
      "outputs": [
        {
          "name": "node",
          "type": "bytes32"
        }
      ],
      "payable": false,
      "stateMutability": "nonpayable",
      "type": "function"
    },
    {
      "constant": false,
      "inputs": [
        {
          "name": "owner",
          "type": "address"
        }
      ],
      "name": "claim",
      "outputs": [
        {
          "name": "node",
          "type": "bytes32"
        }
      ],
      "payable": false,
      "stateMutability": "nonpayable",
      "type": "function"
    },
    {
      "constant": true,
      "inputs": [],
      "name": "ens",
      "outputs": [
        {
          "name": "",
          "type": "address"
        }
      ],
      "payable": false,
      "stateMutability": "view",
      "type": "function"
    },
    {
      "constant": true,
      "inputs": [],
      "name": "defaultResolver",
      "outputs": [
        {
          "name": "",
          "type": "address"
        }
      ],
      "payable": false,
      "stateMutability": "view",
      "type": "function"
    },
    {
      "constant": true,
      "inputs": [
        {
          "name": "addr",
          "type": "address"
        }
      ],
      "name": "node",
      "outputs": [
        {
          "name": "ret",
          "type": "bytes32"
        }
      ],
      "payable": false,
      "stateMutability": "view",
      "type": "function"
    },
    {
      "constant": false,
      "inputs": [
        {
          "name": "name",
          "type": "string"
        }
      ],
      "name": "setName",
      "outputs": [
        {
          "name": "node",
          "type": "bytes32"
        }
      ],
      "payable": false,
      "stateMutability": "nonpayable",
      "type": "function"
    },
    {
      "inputs": [
        {
          "name": "ensAddr",
          "type": "address"
        },
        {
          "name": "resolverAddr",
          "type": "address"
        }
      ],
      "payable": false,
      "stateMutability": "nonpayable",
      "type": "constructor"
    }
  ],
  "bytecode": "0x6060604052341561000f57600080fd5b604051604080610d96833981016040528080519060200190919080519060200190919050506000826000806101000a81548173ffffffffffffffffffffffffffffffffffffffff021916908373ffffffffffffffffffffffffffffffffffffffff16021790555081600160006101000a81548173ffffffffffffffffffffffffffffffffffffffff021916908373ffffffffffffffffffffffffffffffffffffffff1602179055506000809054906101000a900473ffffffffffffffffffffffffffffffffffffffff1673ffffffffffffffffffffffffffffffffffffffff166302571be37f91d1777781884d03a6757a803996e38de2a42967fb37eeaca72729271025a9e26001026000604051602001526040518263ffffffff167c0100000000000000000000000000000000000000000000000000000000028152600401808260001916600019168152602001915050602060405180830381600087803b151561017a57600080fd5b6102c65a03f1151561018b57600080fd5b50505060405180519050905060008173ffffffffffffffffffffffffffffffffffffffff16141515610277578073ffffffffffffffffffffffffffffffffffffffff16631e83409a336000604051602001526040518263ffffffff167c0100000000000000000000000000000000000000000000000000000000028152600401808273ffffffffffffffffffffffffffffffffffffffff1673ffffffffffffffffffffffffffffffffffffffff168152602001915050602060405180830381600087803b151561025a57600080fd5b6102c65a03f1151561026b57600080fd5b50505060405180519050505b505050610b0d806102896000396000f300606060405260043610610078576000357c0100000000000000000000000000000000000000000000000000000000900463ffffffff1680630f5a54661461007d5780631e83409a146100f15780633f15457f14610146578063828eab0e1461019b578063bffbe61c146101f0578063c47f002714610245575b600080fd5b341561008857600080fd5b6100d3600480803573ffffffffffffffffffffffffffffffffffffffff1690602001909190803573ffffffffffffffffffffffffffffffffffffffff169060200190919050506102be565b60405180826000191660001916815260200191505060405180910390f35b34156100fc57600080fd5b610128600480803573ffffffffffffffffffffffffffffffffffffffff1690602001909190505061086e565b60405180826000191660001916815260200191505060405180910390f35b341561015157600080fd5b610159610882565b604051808273ffffffffffffffffffffffffffffffffffffffff1673ffffffffffffffffffffffffffffffffffffffff16815260200191505060405180910390f35b34156101a657600080fd5b6101ae6108a7565b604051808273ffffffffffffffffffffffffffffffffffffffff1673ffffffffffffffffffffffffffffffffffffffff16815260200191505060405180910390f35b34156101fb57600080fd5b610227600480803573ffffffffffffffffffffffffffffffffffffffff169060200190919050506108cd565b60405180826000191660001916815260200191505060405180910390f35b341561025057600080fd5b6102a0600480803590602001908201803590602001908080601f0160208091040260200160405190810160405280939291908181526020018383808284378201915050505050509190505061092f565b60405180826000191660001916815260200191505060405180910390f35b60008060006102cc33610a80565b91507f91d1777781884d03a6757a803996e38de2a42967fb37eeaca72729271025a9e260010282604051808360001916600019168152602001826000191660001916815260200192505050604051809103902092506000809054906101000a900473ffffffffffffffffffffffffffffffffffffffff1673ffffffffffffffffffffffffffffffffffffffff166302571be3846000604051602001526040518263ffffffff167c0100000000000000000000000000000000000000000000000000000000028152600401808260001916600019168152602001915050602060405180830381600087803b15156103c157600080fd5b6102c65a03f115156103d257600080fd5b50505060405180519050905060008473ffffffffffffffffffffffffffffffffffffffff16141580156104eb57506000809054906101000a900473ffffffffffffffffffffffffffffffffffffffff1673ffffffffffffffffffffffffffffffffffffffff16630178b8bf846000604051602001526040518263ffffffff167c0100000000000000000000000000000000000000000000000000000000028152600401808260001916600019168152602001915050602060405180830381600087803b15156104a057600080fd5b6102c65a03f115156104b157600080fd5b5050506040518051905073ffffffffffffffffffffffffffffffffffffffff168473ffffffffffffffffffffffffffffffffffffffff1614155b1561071b573073ffffffffffffffffffffffffffffffffffffffff168173ffffffffffffffffffffffffffffffffffffffff1614151561063b576000809054906101000a900473ffffffffffffffffffffffffffffffffffffffff1673ffffffffffffffffffffffffffffffffffffffff166306ab59237f91d1777781884d03a6757a803996e38de2a42967fb37eeaca72729271025a9e260010284306040518463ffffffff167c010000000000000000000000000000000000000000000000000000000002815260040180846000191660001916815260200183600019166000191681526020018273ffffffffffffffffffffffffffffffffffffffff1673ffffffffffffffffffffffffffffffffffffffff1681526020019350505050600060405180830381600087803b151561062357600080fd5b6102c65a03f1151561063457600080fd5b5050503090505b6000809054906101000a900473ffffffffffffffffffffffffffffffffffffffff1673ffffffffffffffffffffffffffffffffffffffff16631896f70a84866040518363ffffffff167c01000000000000000000000000000000000000000000000000000000000281526004018083600019166000191681526020018273ffffffffffffffffffffffffffffffffffffffff1673ffffffffffffffffffffffffffffffffffffffff16815260200192505050600060405180830381600087803b151561070657600080fd5b6102c65a03f1151561071757600080fd5b5050505b8473ffffffffffffffffffffffffffffffffffffffff168173ffffffffffffffffffffffffffffffffffffffff16141515610863576000809054906101000a900473ffffffffffffffffffffffffffffffffffffffff1673ffffffffffffffffffffffffffffffffffffffff166306ab59237f91d1777781884d03a6757a803996e38de2a42967fb37eeaca72729271025a9e260010284886040518463ffffffff167c010000000000000000000000000000000000000000000000000000000002815260040180846000191660001916815260200183600019166000191681526020018273ffffffffffffffffffffffffffffffffffffffff1673ffffffffffffffffffffffffffffffffffffffff1681526020019350505050600060405180830381600087803b151561084e57600080fd5b6102c65a03f1151561085f57600080fd5b5050505b829250505092915050565b600061087b8260006102be565b9050919050565b6000809054906101000a900473ffffffffffffffffffffffffffffffffffffffff1681565b600160009054906101000a900473ffffffffffffffffffffffffffffffffffffffff1681565b60007f91d1777781884d03a6757a803996e38de2a42967fb37eeaca72729271025a9e26001026108fc83610a80565b60405180836000191660001916815260200182600019166000191681526020019250505060405180910390209050919050565b600061095d30600160009054906101000a900473ffffffffffffffffffffffffffffffffffffffff166102be565b9050600160009054906101000a900473ffffffffffffffffffffffffffffffffffffffff1673ffffffffffffffffffffffffffffffffffffffff16637737221382846040518363ffffffff167c010000000000000000000000000000000000000000000000000000000002815260040180836000191660001916815260200180602001828103825283818151815260200191508051906020019080838360005b83811015610a185780820151818401526020810190506109fd565b50505050905090810190601f168015610a455780820380516001836020036101000a031916815260200191505b509350505050600060405180830381600087803b1515610a6457600080fd5b6102c65a03f11515610a7557600080fd5b505050809050919050565b60007f303132333435363738396162636465660000000000000000000000000000000060285b60018103905081600f85161a815360108404935060018103905081600f85161a815360108404935080610aa6576028600020925050509190505600a165627a7a72305820263a950f5dbb4c9b8b0f57b15e433cdfd37c9e9e3fb6c29dd88457c1f67beb370029",
  "source": "pragma solidity ^0.4.10;\n\nimport \"./AbstractENS.sol\";\n\ncontract Resolver {\n    function setName(bytes32 node, string name) public;\n}\n\n/**\n * @dev Provides a default implementation of a resolver for reverse records,\n * which permits only the owner to update it.\n */\ncontract DefaultReverseResolver is Resolver {\n    // namehash('addr.reverse')\n    bytes32 constant ADDR_REVERSE_NODE = 0x91d1777781884d03a6757a803996e38de2a42967fb37eeaca72729271025a9e2;\n\n    AbstractENS public ens;\n    mapping(bytes32=>string) public name;\n    \n    /**\n     * @dev Constructor\n     * @param ensAddr The address of the ENS registry.\n     */\n    function DefaultReverseResolver(AbstractENS ensAddr) {\n        ens = ensAddr;\n\n        // Assign ownership of the reverse record to our deployer\n        var registrar = ReverseRegistrar(ens.owner(ADDR_REVERSE_NODE));\n        if(address(registrar) != 0) {\n            registrar.claim(msg.sender);\n        }\n    }\n\n    /**\n     * @dev Only permits calls by the reverse registrar.\n     * @param node The node permission is required for.\n     */\n    modifier owner_only(bytes32 node) {\n        require(msg.sender == ens.owner(node));\n        _;\n    }\n\n    /**\n     * @dev Sets the name for a node.\n     * @param node The node to update.\n     * @param _name The name to set.\n     */\n    function setName(bytes32 node, string _name) public owner_only(node) {\n        name[node] = _name;\n    }\n}\n\ncontract ReverseRegistrar {\n    // namehash('addr.reverse')\n    bytes32 constant ADDR_REVERSE_NODE = 0x91d1777781884d03a6757a803996e38de2a42967fb37eeaca72729271025a9e2;\n\n    AbstractENS public ens;\n    Resolver public defaultResolver;\n\n    /**\n     * @dev Constructor\n     * @param ensAddr The address of the ENS registry.\n     * @param resolverAddr The address of the default reverse resolver.\n     */\n    function ReverseRegistrar(AbstractENS ensAddr, Resolver resolverAddr) {\n        ens = ensAddr;\n        defaultResolver = resolverAddr;\n\n        // Assign ownership of the reverse record to our deployer\n        var oldRegistrar = ReverseRegistrar(ens.owner(ADDR_REVERSE_NODE));\n        if(address(oldRegistrar) != 0) {\n            oldRegistrar.claim(msg.sender);\n        }\n    }\n    \n    /**\n     * @dev Transfers ownership of the reverse ENS record associated with the\n     *      calling account.\n     * @param owner The address to set as the owner of the reverse record in ENS.\n     * @return The ENS node hash of the reverse record.\n     */\n    function claim(address owner) returns (bytes32 node) {\n        return claimWithResolver(owner, 0);\n    }\n\n    /**\n     * @dev Transfers ownership of the reverse ENS record associated with the\n     *      calling account.\n     * @param owner The address to set as the owner of the reverse record in ENS.\n     * @param resolver The address of the resolver to set; 0 to leave unchanged.\n     * @return The ENS node hash of the reverse record.\n     */\n    function claimWithResolver(address owner, address resolver) returns (bytes32 node) {\n        var label = sha3HexAddress(msg.sender);\n        node = sha3(ADDR_REVERSE_NODE, label);\n        var currentOwner = ens.owner(node);\n\n        // Update the resolver if required\n        if(resolver != 0 && resolver != ens.resolver(node)) {\n            // Transfer the name to us first if it's not already\n            if(currentOwner != address(this)) {\n                ens.setSubnodeOwner(ADDR_REVERSE_NODE, label, this);\n                currentOwner = address(this);\n            }\n            ens.setResolver(node, resolver);\n        }\n\n        // Update the owner if required\n        if(currentOwner != owner) {\n            ens.setSubnodeOwner(ADDR_REVERSE_NODE, label, owner);\n        }\n\n        return node;\n    }\n\n    /**\n     * @dev Sets the `name()` record for the reverse ENS record associated with\n     * the calling account. First updates the resolver to the default reverse\n     * resolver if necessary.\n     * @param name The name to set for this address.\n     * @return The ENS node hash of the reverse record.\n     */\n    function setName(string name) returns (bytes32 node) {\n        node = claimWithResolver(this, defaultResolver);\n        defaultResolver.setName(node, name);\n        return node;\n    }\n\n    /**\n     * @dev Returns the node hash for a given account's reverse records.\n     * @param addr The address to hash\n     * @return The ENS node hash.\n     */\n    function node(address addr) constant returns (bytes32 ret) {\n        return sha3(ADDR_REVERSE_NODE, sha3HexAddress(addr));\n    }\n\n    /**\n     * @dev An optimised function to compute the sha3 of the lower-case\n     *      hexadecimal representation of an Ethereum address.\n     * @param addr The address to hash\n     * @return The SHA3 hash of the lower-case hexadecimal encoding of the\n     *         input address.\n     */\n    function sha3HexAddress(address addr) private returns (bytes32 ret) {\n        addr; ret; // Stop warning us about unused variables\n        assembly {\n            let lookup := 0x3031323334353637383961626364656600000000000000000000000000000000\n            let i := 40\n        loop:\n            i := sub(i, 1)\n            mstore8(i, byte(and(addr, 0xf), lookup))\n            addr := div(addr, 0x10)\n            i := sub(i, 1)\n            mstore8(i, byte(and(addr, 0xf), lookup))\n            addr := div(addr, 0x10)\n            jumpi(loop, i)\n            ret := sha3(0, 40)\n        }\n    }\n}\n",
  "sourcePath": "/Users/anduril/ens-playground/contracts/ReverseRegistrar.sol",
  "compiler": {
    "name": "solc",
    "version": "0.4.18+commit.9cf6e910.Emscripten.clang"
  },
  "schemaVersion": "1.0.1",
  "updatedAt": "2017-12-18T19:31:39.126Z"
}