{
  "contractName": "SecondaryRegistrar",
  "abi": [
    {
      "constant": false,
      "inputs": [
        {
          "name": "i",
          "type": "uint256"
        }
      ],
      "name": "getRecord",
      "outputs": [
        {
          "name": "",
          "type": "string"
        },
        {
          "name": "",
          "type": "uint256"
        },
        {
          "name": "",
          "type": "bool"
        },
        {
          "name": "",
          "type": "string"
        }
      ],
      "payable": false,
      "stateMutability": "nonpayable",
      "type": "function"
    },
    {
      "constant": false,
      "inputs": [
        {
          "name": "name",
          "type": "string"
        },
        {
          "name": "amount",
          "type": "uint256"
        },
        {
          "name": "timeInSeconds",
          "type": "uint256"
        }
      ],
      "name": "startAuctionDomain",
      "outputs": [],
      "payable": false,
      "stateMutability": "nonpayable",
      "type": "function"
    },
    {
      "constant": false,
      "inputs": [
        {
          "name": "domain",
          "type": "string"
        },
        {
          "name": "subdomain",
          "type": "string"
        },
        {
          "name": "amount",
          "type": "uint256"
        }
      ],
      "name": "listSubDomain",
      "outputs": [],
      "payable": false,
      "stateMutability": "nonpayable",
      "type": "function"
    },
    {
      "constant": false,
      "inputs": [
        {
          "name": "name",
          "type": "string"
        }
      ],
      "name": "buy",
      "outputs": [],
      "payable": true,
      "stateMutability": "payable",
      "type": "function"
    },
    {
      "constant": false,
      "inputs": [
        {
          "name": "name",
          "type": "string"
        },
        {
          "name": "amount",
          "type": "uint256"
        }
      ],
      "name": "listName",
      "outputs": [],
      "payable": false,
      "stateMutability": "nonpayable",
      "type": "function"
    },
    {
      "constant": false,
      "inputs": [
        {
          "name": "name",
          "type": "string"
        }
      ],
      "name": "bidDomain",
      "outputs": [],
      "payable": true,
      "stateMutability": "payable",
      "type": "function"
    },
    {
      "constant": false,
      "inputs": [
        {
          "name": "name",
          "type": "string"
        }
      ],
      "name": "finalize",
      "outputs": [],
      "payable": false,
      "stateMutability": "nonpayable",
      "type": "function"
    },
    {
      "constant": false,
      "inputs": [
        {
          "name": "domain",
          "type": "string"
        },
        {
          "name": "subdomain",
          "type": "string"
        }
      ],
      "name": "buySubDomain",
      "outputs": [],
      "payable": true,
      "stateMutability": "payable",
      "type": "function"
    },
    {
      "constant": false,
      "inputs": [
        {
          "name": "i",
          "type": "uint256"
        }
      ],
      "name": "getAuctionRecord",
      "outputs": [
        {
          "name": "",
          "type": "string"
        },
        {
          "name": "",
          "type": "string"
        },
        {
          "name": "",
          "type": "bool"
        },
        {
          "name": "",
          "type": "uint256"
        },
        {
          "name": "",
          "type": "uint256"
        }
      ],
      "payable": false,
      "stateMutability": "nonpayable",
      "type": "function"
    },
    {
      "constant": false,
      "inputs": [],
      "name": "getCount",
      "outputs": [
        {
          "name": "",
          "type": "uint256"
        }
      ],
      "payable": false,
      "stateMutability": "nonpayable",
      "type": "function"
    },
    {
      "constant": false,
      "inputs": [],
      "name": "getAuctionCount",
      "outputs": [
        {
          "name": "",
          "type": "uint256"
        }
      ],
      "payable": false,
      "stateMutability": "nonpayable",
      "type": "function"
    },
    {
      "inputs": [
        {
          "name": "name",
          "type": "string"
        }
      ],
      "payable": false,
      "stateMutability": "nonpayable",
      "type": "function",
      "constant": false,
      "name": "getBestBidder",
      "outputs": [
        {
          "name": "",
          "type": "address"
        }
      ]
    },
    {
      "anonymous": false,
      "inputs": [
        {
          "indexed": false,
          "name": "ensAddr",
          "type": "address"
        }
      ],
      "name": "LogAddress",
      "type": "constructor",
      "payable": false,
      "stateMutability": "nonpayable"
    },
    {
      "anonymous": false,
      "inputs": [
        {
          "indexed": false,
          "name": "addr",
          "type": "address"
        }
      ],
      "name": "LogAddress",
      "type": "event"
    },
    {
      "anonymous": false,
      "inputs": [
        {
          "indexed": false,
          "name": "amt",
          "type": "uint256"
        }
      ],
      "name": "LogAmount",
      "type": "event"
    },
    {
      "anonymous": false,
      "inputs": [
        {
          "indexed": false,
          "name": "s",
          "type": "string"
        }
      ],
      "name": "LogString",
      "type": "event"
    }
  ],
  "bytecode": "0x6060604052341561000f57600080fd5b60405160208061244783398101604052808051906020019091905050806000806101000a81548173ffffffffffffffffffffffffffffffffffffffff021916908373ffffffffffffffffffffffffffffffffffffffff160217905550506123cc8061007b6000396000f3006060604052600436106100ba576000357c0100000000000000000000000000000000000000000000000000000000900463ffffffff16806303e9e609146100bf57806326f98ec8146101d95780634657ee4114610248578063492cc769146102f15780634a7d47c114610343578063636e6ea4146103a957806370b581ad146103fb5780638fe20e3214610458578063a8475e9d146104ed578063a87d942c1461060e578063c44e664014610637578063e7805c3a14610660575b600080fd5b34156100ca57600080fd5b6100e060048080359060200190919050506106fd565b60405180806020018581526020018415151515815260200180602001838103835287818151815260200191508051906020019080838360005b83811015610134578082015181840152602081019050610119565b50505050905090810190601f1680156101615780820380516001836020036101000a031916815260200191505b50838103825284818151815260200191508051906020019080838360005b8381101561019a57808201518184015260208101905061017f565b50505050905090810190601f1680156101c75780820380516001836020036101000a031916815260200191505b50965050505050505060405180910390f35b34156101e457600080fd5b610246600480803590602001908201803590602001908080601f016020809104026020016040519081016040528093929190818152602001838380828437820191505050505050919080359060200190919080359060200190919050506108fe565b005b341561025357600080fd5b6102ef600480803590602001908201803590602001908080601f0160208091040260200160405190810160405280939291908181526020018383808284378201915050505050509190803590602001908201803590602001908080601f01602080910402602001604051908101604052809392919081815260200183838082843782019150505050505091908035906020019091905050610ba7565b005b610341600480803590602001908201803590602001908080601f01602080910402602001604051908101604052809392919081815260200183838082843782019150505050505091905050610da0565b005b341561034e57600080fd5b6103a7600480803590602001908201803590602001908080601f01602080910402602001604051908101604052809392919081815260200183838082843782019150505050505091908035906020019091905050610ec7565b005b6103f9600480803590602001908201803590602001908080601f01602080910402602001604051908101604052809392919081815260200183838082843782019150505050505091905050611050565b005b341561040657600080fd5b610456600480803590602001908201803590602001908080601f016020809104026020016040519081016040528093929190818152602001838380828437820191505050505050919050506113a4565b005b6104eb600480803590602001908201803590602001908080601f0160208091040260200160405190810160405280939291908181526020018383808284378201915050505050509190803590602001908201803590602001908080601f01602080910402602001604051908101604052809392919081815260200183838082843782019150505050505091905050611581565b005b34156104f857600080fd5b61050e600480803590602001909190505061190c565b60405180806020018060200186151515158152602001858152602001848152602001838103835288818151815260200191508051906020019080838360005b8381101561056857808201518184015260208101905061054d565b50505050905090810190601f1680156105955780820380516001836020036101000a031916815260200191505b50838103825287818151815260200191508051906020019080838360005b838110156105ce5780820151818401526020810190506105b3565b50505050905090810190601f1680156105fb5780820380516001836020036101000a031916815260200191505b5097505050505050505060405180910390f35b341561061957600080fd5b610621611ac9565b6040518082815260200191505060405180910390f35b341561064257600080fd5b61064a611adb565b6040518082815260200191505060405180910390f35b341561066b57600080fd5b6106bb600480803590602001908201803590602001908080601f01602080910402602001604051908101604052809392919081815260200183838082843782019150505050505091905050611ae8565b604051808273ffffffffffffffffffffffffffffffffffffffff1673ffffffffffffffffffffffffffffffffffffffff16815260200191505060405180910390f35b6107056120b5565b6000806107106120b5565b600060018681548110151561072157fe5b90600052602060002090015490506003600082600019166000191681526020019081526020016000206003016003600083600019166000191681526020019081526020016000206001015460036000846000191660001916815260200190815260200160002060020160009054906101000a900460ff16600360008560001916600019168152602001908152602001600020600401838054600181600116156101000203166002900480601f01602080910402602001604051908101604052809291908181526020018280546001816001161561010002031660029004801561084b5780601f106108205761010080835404028352916020019161084b565b820191906000526020600020905b81548152906001019060200180831161082e57829003601f168201915b50505050509350808054600181600116156101000203166002900480601f0160208091040260200160405190810160405280929190818152602001828054600181600116156101000203166002900480156108e75780601f106108bc576101008083540402835291602001916108e7565b820191906000526020600020905b8154815290600101906020018083116108ca57829003601f168201915b505050505090509450945094509450509193509193565b60008061090a85611b3d565b91506001151561091983611c7b565b151514151561092757600080fd5b60018302420190508460066000846000191660001916815260200190815260200160002060030190805190602001906109619291906120c9565b508360066000846000191660001916815260200190815260200160002060010181905550602060405190810160405280600081525060066000846000191660001916815260200190815260200160002060040190805190602001906109c79291906120c9565b50600160066000846000191660001916815260200190815260200160002060020160006101000a81548160ff02191690831515021790555080600660008460001916600019168152602001908152602001600020600501819055503360066000846000191660001916815260200190815260200160002060000160006101000a81548173ffffffffffffffffffffffffffffffffffffffff021916908373ffffffffffffffffffffffffffffffffffffffff1602179055506080604051908101604052803373ffffffffffffffffffffffffffffffffffffffff16815260200160008152602001868152602001602060405190810160405280600081525081525060056000846000191660001916815260200190815260200160002060008201518160000160006101000a81548173ffffffffffffffffffffffffffffffffffffffff021916908373ffffffffffffffffffffffffffffffffffffffff160217905550602082015181600101556040820151816002019080519060200190610b50929190612149565b506060820151816003019080519060200190610b6d929190612149565b5090505060028054806001018281610b8591906121c9565b9160005260206000209001600084909190915090600019169055505050505050565b6000806000610bb586611b3d565b9250846040518082805190602001908083835b602083101515610bed5780518252602082019150602081019050602083039250610bc8565b6001836020036101000a038019825116818451168082178552505050505050905001915050604051809103902091508282604051808360001916600019168152602001826000191660001916815260200192505050604051809103902090503360036000836000191660001916815260200190815260200160002060000160006101000a81548173ffffffffffffffffffffffffffffffffffffffff021916908373ffffffffffffffffffffffffffffffffffffffff1602179055508360036000836000191660001916815260200190815260200160002060010181905550856003600083600019166000191681526020019081526020016000206003019080519060200190610cfe9291906120c9565b50846003600083600019166000191681526020019081526020016000206004019080519060200190610d319291906120c9565b50600160036000836000191660001916815260200190815260200160002060020160006101000a81548160ff02191690831515021790555060018054806001018281610d7d91906121c9565b916000526020600020900160008390919091509060001916905550505050505050565b6000610dab82611b3d565b90506000809054906101000a900473ffffffffffffffffffffffffffffffffffffffff1673ffffffffffffffffffffffffffffffffffffffff16635b0fc9c382336040518363ffffffff167c01000000000000000000000000000000000000000000000000000000000281526004018083600019166000191681526020018273ffffffffffffffffffffffffffffffffffffffff1673ffffffffffffffffffffffffffffffffffffffff16815260200192505050600060405180830381600087803b1515610e7857600080fd5b6102c65a03f11515610e8957600080fd5b505050600060036000836000191660001916815260200190815260200160002060020160006101000a81548160ff0219169083151502179055505050565b6000610ed283611b3d565b905060011515610ee182611c7b565b1515141515610eef57600080fd5b3360036000836000191660001916815260200190815260200160002060000160006101000a81548173ffffffffffffffffffffffffffffffffffffffff021916908373ffffffffffffffffffffffffffffffffffffffff1602179055508160036000836000191660001916815260200190815260200160002060010181905550826003600083600019166000191681526020019081526020016000206003019080519060200190610fa19291906120c9565b50600160036000836000191660001916815260200190815260200160002060020160006101000a81548160ff0219169083151502179055506020604051908101604052806000815250600360008360001916600019168152602001908152602001600020600401908051906020019061101b9291906120c9565b506001805480600101828161103091906121c9565b916000526020600020900160008390919091509060001916905550505050565b600061105a6121f5565b61106383611b3d565b9150600660008360001916600019168152602001908152602001600020600101543411151561109157600080fd5b6001151560066000846000191660001916815260200190815260200160002060020160009054906101000a900460ff1615151415156110cf57600080fd5b6080604051908101604052803373ffffffffffffffffffffffffffffffffffffffff1681526020013481526020018481526020016020604051908101604052806000815250815250905060046000836000191660001916815260200190815260200160002080548060010182816111469190612240565b9160005260206000209060040201600083909190915060008201518160000160006101000a81548173ffffffffffffffffffffffffffffffffffffffff021916908373ffffffffffffffffffffffffffffffffffffffff1602179055506020820151816001015560408201518160020190805190602001906111c9929190612149565b5060608201518160030190805190602001906111e6929190612149565b50505050600560008360001916600019168152602001908152602001600020600101548160200151111561139f5760056000836000191660001916815260200190815260200160002060000160009054906101000a900473ffffffffffffffffffffffffffffffffffffffff1673ffffffffffffffffffffffffffffffffffffffff166108fc600560008560001916600019168152602001908152602001600020600101549081150290604051600060405180830381858888f1935050505015156112b057600080fd5b8060056000846000191660001916815260200190815260200160002060008201518160000160006101000a81548173ffffffffffffffffffffffffffffffffffffffff021916908373ffffffffffffffffffffffffffffffffffffffff160217905550602082015181600101556040820151816002019080519060200190611339929190612149565b506060820151816003019080519060200190611356929190612149565b50905050603c6006600084600019166000191681526020019081526020016000206005015401600660008460001916600019168152602001908152602001600020600501819055505b505050565b60006113af82611b3d565b90506001151560066000836000191660001916815260200190815260200160002060020160009054906101000a900460ff1615151415156113ef57600080fd5b3373ffffffffffffffffffffffffffffffffffffffff1660056000836000191660001916815260200190815260200160002060000160009054906101000a900473ffffffffffffffffffffffffffffffffffffffff1673ffffffffffffffffffffffffffffffffffffffff1614151561146757600080fd5b6000809054906101000a900473ffffffffffffffffffffffffffffffffffffffff1673ffffffffffffffffffffffffffffffffffffffff16635b0fc9c382336040518363ffffffff167c01000000000000000000000000000000000000000000000000000000000281526004018083600019166000191681526020018273ffffffffffffffffffffffffffffffffffffffff1673ffffffffffffffffffffffffffffffffffffffff16815260200192505050600060405180830381600087803b151561153257600080fd5b6102c65a03f1151561154357600080fd5b505050600060066000836000191660001916815260200190815260200160002060020160006101000a81548160ff0219169083151502179055505050565b600080600061158f85611b3d565b9250836040518082805190602001908083835b6020831015156115c757805182526020820191506020810190506020830392506115a2565b6001836020036101000a0380198251168184511680821785525050505050509050019150506040518091039020915082826040518083600019166000191681526020018260001916600019168152602001925050506040518091039020905060036000826000191660001916815260200190815260200160002060000160009054906101000a900473ffffffffffffffffffffffffffffffffffffffff1673ffffffffffffffffffffffffffffffffffffffff166108fc600360008460001916600019168152602001908152602001600020600101549081150290604051600060405180830381858888f1935050505015156116c257600080fd5b6000809054906101000a900473ffffffffffffffffffffffffffffffffffffffff1673ffffffffffffffffffffffffffffffffffffffff166306ab59238484336040518463ffffffff167c010000000000000000000000000000000000000000000000000000000002815260040180846000191660001916815260200183600019166000191681526020018273ffffffffffffffffffffffffffffffffffffffff1673ffffffffffffffffffffffffffffffffffffffff1681526020019350505050600060405180830381600087803b151561179d57600080fd5b6102c65a03f115156117ae57600080fd5b5050506000809054906101000a900473ffffffffffffffffffffffffffffffffffffffff1673ffffffffffffffffffffffffffffffffffffffff16635b0fc9c38460036000856000191660001916815260200190815260200160002060000160009054906101000a900473ffffffffffffffffffffffffffffffffffffffff166040518363ffffffff167c01000000000000000000000000000000000000000000000000000000000281526004018083600019166000191681526020018273ffffffffffffffffffffffffffffffffffffffff1673ffffffffffffffffffffffffffffffffffffffff16815260200192505050600060405180830381600087803b15156118ba57600080fd5b6102c65a03f115156118cb57600080fd5b505050600060036000836000191660001916815260200190815260200160002060020160006101000a81548160ff0219169083151502179055505050505050565b6119146120b5565b61191c6120b5565b6000806000806006600060028981548110151561193557fe5b90600052602060002090015460001916600019168152602001908152602001600020905080600301816004018260020160009054906101000a900460ff1683600101548460050154848054600181600116156101000203166002900480601f016020809104026020016040519081016040528092919081815260200182805460018160011615610100020316600290048015611a125780601f106119e757610100808354040283529160200191611a12565b820191906000526020600020905b8154815290600101906020018083116119f557829003601f168201915b50505050509450838054600181600116156101000203166002900480601f016020809104026020016040519081016040528092919081815260200182805460018160011615610100020316600290048015611aae5780601f10611a8357610100808354040283529160200191611aae565b820191906000526020600020905b815481529060010190602001808311611a9157829003601f168201915b50505050509350955095509550955095505091939590929450565b60008060018054905090508091505090565b6000600280549050905090565b600080611af483611b3d565b905060056000826000191660001916815260200190815260200160002060000160009054906101000a900473ffffffffffffffffffffffffffffffffffffffff16915050919050565b6000611b47612272565b611b4f6120b5565b611b5884611da4565b91506000611b6583611dd2565b1415611b775760006001029250611c74565b611bcf611bca611bbb6040805190810160405280600181526020017f2e00000000000000000000000000000000000000000000000000000000000000815250611da4565b84611e9890919063ffffffff16565b611eb2565b9050611be2611bdd83611eb2565b611b3d565b816040518082805190602001908083835b602083101515611c185780518252602082019150602081019050602083039250611bf3565b6001836020036101000a0380198251168184511680821785525050505050509050019150506040518091039020604051808360001916600019168152602001826000191660001916815260200192505050604051809103902092505b5050919050565b60008060008091506000809054906101000a900473ffffffffffffffffffffffffffffffffffffffff1673ffffffffffffffffffffffffffffffffffffffff166302571be3856000604051602001526040518263ffffffff167c0100000000000000000000000000000000000000000000000000000000028152600401808260001916600019168152602001915050602060405180830381600087803b1515611d2357600080fd5b6102c65a03f11515611d3457600080fd5b5050506040518051905090503373ffffffffffffffffffffffffffffffffffffffff168173ffffffffffffffffffffffffffffffffffffffff161480611d90575060008173ffffffffffffffffffffffffffffffffffffffff16145b15611d9a57600191505b8192505050919050565b611dac612272565b600060208301905060408051908101604052808451815260200182815250915050919050565b6000806000806000601f8660200151039350856000015184019250600091505b82841015611e8c5760ff845116905060808160ff161015611e1857600184019350611e7f565b60e08160ff161015611e2f57600284019350611e7e565b60f08160ff161015611e4657600384019350611e7d565b60f88160ff161015611e5d57600484019350611e7c565b60fc8160ff161015611e7457600584019350611e7b565b6006840193505b5b5b5b5b8180600101925050611df2565b81945050505050919050565b611ea0612272565b611eab838383611f10565b5092915050565b611eba6120b5565b611ec26120b5565b60008360000151604051805910611ed65750595b9080825280601f01601f19166020018201604052509150602082019050611f068185602001518660000151611fae565b8192505050919050565b611f18612272565b6000611f368560000151866020015186600001518760200151611ff9565b90508460200151836020018181525050846020015181038360000181815250508460000151856020015101811415611f78576000856000018181525050611fa3565b8360000151836000015101856000018181510391508181525050836000015181018560200181815250505b829150509392505050565b60005b602082101515611fd65782518452602084019350602083019250602082039150611fb1565b6001826020036101000a0390508019835116818551168181178652505050505050565b600080600080600088871115156120a35760208711151561205a5760018760200360080260020a031980875116888b038a018a96505b81838851161461204f5760018701965080600188031061202f578b8b0196505b5050508394506120a9565b8686209150879350600092505b868903831115156120a257868420905080600019168260001916141561208f578394506120a9565b6001840193508280600101935050612067565b5b88880194505b50505050949350505050565b602060405190810160405280600081525090565b828054600181600116156101000203166002900490600052602060002090601f016020900481019282601f1061210a57805160ff1916838001178555612138565b82800160010185558215612138579182015b8281111561213757825182559160200191906001019061211c565b5b509050612145919061228c565b5090565b828054600181600116156101000203166002900490600052602060002090601f016020900481019282601f1061218a57805160ff19168380011785556121b8565b828001600101855582156121b8579182015b828111156121b757825182559160200191906001019061219c565b5b5090506121c5919061228c565b5090565b8154818355818115116121f0578183600052602060002091820191016121ef91906122b1565b5b505050565b608060405190810160405280600073ffffffffffffffffffffffffffffffffffffffff1681526020016000815260200161222d6122d6565b815260200161223a6122d6565b81525090565b81548183558181151161226d5760040281600402836000526020600020918201910161226c91906122ea565b5b505050565b604080519081016040528060008152602001600081525090565b6122ae91905b808211156122aa576000816000905550600101612292565b5090565b90565b6122d391905b808211156122cf5760008160009055506001016122b7565b5090565b90565b602060405190810160405280600081525090565b61235591905b8082111561235157600080820160006101000a81549073ffffffffffffffffffffffffffffffffffffffff021916905560018201600090556002820160006123389190612358565b6003820160006123489190612358565b506004016122f0565b5090565b90565b50805460018160011615610100020316600290046000825580601f1061237e575061239d565b601f01602090049060005260206000209081019061239c919061228c565b5b505600a165627a7a72305820ebbc169e85dedb6db8e80799fe8ad7438d3e91f363732bb2958551ca4c05dc490029",
  "source": "pragma solidity ^0.4.0;\n\nimport './AbstractENS.sol';\nimport './strings.sol';\n\ncontract SecondaryRegistrar {\n    using strings for *;\n    AbstractENS ens;\n\n    bytes32[] dA;\n    bytes32[] auctions;\n\n    struct Record {\n        address owner;\n        uint amount;\n        bool available;\n        string name;\n        string subDomain;\n    }\n\n    struct AuctionRecord {\n        address owner;\n        uint minAmount;\n        bool available;\n        string name;\n        string subDomain;\n        uint expiryTime;\n    }\n\n    struct Bid {\n        address bidder;\n        uint amount;\n        string name;\n        string subDomain;\n    }\n\n    mapping(bytes32=>Record) records;\n    mapping(bytes32=>Bid[]) bidsForName;\n    mapping(bytes32=>Bid) bestBid;\n    mapping(bytes32=>AuctionRecord) aRecords;\n\n    event LogAddress(address addr);\n    event LogAmount(uint amt);\n    event LogString(string s);\n\n    /**\n     * Constructor.\n     * @param ensAddr The address of the ENS registry\n     */\n    function SecondaryRegistrar(AbstractENS ensAddr) {\n        ens = ensAddr;\n    }\n\n    function startAuctionDomain(string name, uint amount, uint timeInSeconds) public {\n        var node = namehash(name);\n        require(ownsNode(node) == true);\n        var expiryTime = now + timeInSeconds * 1 seconds;\n        aRecords[node].name = name;\n        aRecords[node].minAmount = amount;\n        aRecords[node].subDomain = \"\";\n        aRecords[node].available = true;\n        aRecords[node].expiryTime = expiryTime;\n        aRecords[node].owner = msg.sender;\n        bestBid[node] = Bid(msg.sender, 0, name, \"\");\n        auctions.push(node);\n    }\n\n    function getAuctionRecord(uint i) returns(string, string, bool, uint, uint) {\n        var b = aRecords[auctions[i]];\n        return (b.name, b.subDomain, b.available, b.minAmount, b.expiryTime);\n    }\n\n    function getAuctionCount() returns (uint) {\n        return auctions.length;\n    }\n\n    function bidDomain(string name) payable {\n        var node = namehash(name);\n        require(msg.value > aRecords[node].minAmount);\n        require(aRecords[node].available == true);\n        var b = Bid(msg.sender, msg.value, name, \"\");\n        bidsForName[node].push(b);\n        if (b.amount > bestBid[node].amount) {\n            bestBid[node].bidder.transfer(bestBid[node].amount);\n            bestBid[node] = b;\n            aRecords[node].expiryTime = aRecords[node].expiryTime + 60 * 1 seconds;\n        }\n    }\n\n    function getBestBidder(string name) returns (address){\n        var node = namehash(name);\n        return bestBid[node].bidder;\n    }\n\n    function finalize(string name) {\n        var node = namehash(name);\n        require(aRecords[node].available == true);\n        require(bestBid[node].bidder == msg.sender);\n        ens.setOwner(node, msg.sender);\n        aRecords[node].available = false;\n    }\n\n\n    function ownsNode(bytes32 node) internal returns (bool) {\n        var ownsIt = false;\n        var currentOwner = ens.owner(node);\n        if (currentOwner == msg.sender || currentOwner == 0) {\n            ownsIt = true;\n        }\n        return ownsIt;\n    }\n\n    function listSubDomain(string domain, string subdomain, uint amount) {\n        var node = namehash(domain);\n        var subNode = sha3(subdomain);\n        var sHash = sha3(node, subNode);\n        //require(ownsNode(node) == true);\n\n        records[sHash].owner = msg.sender;\n        records[sHash].amount = amount;\n        records[sHash].name = domain;\n        records[sHash].subDomain = subdomain;\n        records[sHash].available = true;\n        dA.push(sHash);\n    }\n\n    function buySubDomain(string domain, string subdomain) payable {\n        var nhash = namehash(domain);\n        var labelhash = sha3(subdomain);\n        var sHash = sha3(nhash, labelhash);\n\n//        require (records[sHash].available == true);\n//        require (msg.value > records[sHash].amount);\n\n        records[sHash].owner.transfer(records[sHash].amount);\n        ens.setSubnodeOwner(nhash, labelhash, msg.sender);\n        ens.setOwner(nhash, records[sHash].owner);\n        records[sHash].available = false;\n//        msg.sender.transfer(msg.value - records[sHash].amount);\n    }\n\n\n    /**\n     * Register a name, or change the owner of an existing registration.\n     * @param name the string of the name\n     * @param amount the amount for ethereum\n     */\n    function listName(string name, uint amount) {\n        var node = namehash(name);\n        require(ownsNode(node) == true);\n\n        records[node].owner = msg.sender;\n        records[node].amount = amount;\n        records[node].name = name;\n        records[node].available = true;\n        records[node].subDomain = \"\";\n        dA.push(node);\n    }\n\n    function getRecord(uint i) public returns(string, uint, bool, string) {\n        bytes32 node = dA[i];\n        return (records[node].name, records[node].amount, records[node].available, records[node].subDomain);\n    }\n\n\n    function buy(string name) payable {\n        var nhash = namehash(name);\n        ens.setOwner(nhash, msg.sender);\n        records[nhash].available = false;\n    }\n\n    function getCount() public returns (uint) {\n        uint i = dA.length;\n        return i;\n    }\n\n    function namehash(string name) internal returns(bytes32) {\n        var nameSlice = name.toSlice();\n\n        if (nameSlice.len() == 0) {\n            return bytes32(0);\n        }\n\n        var label = nameSlice.split(\".\".toSlice()).toString();\n        return sha3(namehash(nameSlice.toString()), sha3(label));\n    }\n\n    /**\n    * @dev Calculates labelHash of ENS name\n    * @param name string Plaintext ENS name\n    * @return bytes32 ENS labelHash, hashed label of the name\n    */\n    function getLabelHash(string name) internal returns(bytes32) {\n        return sha3(name.toSlice().split(\".\".toSlice()).toString());\n    }\n}\n",
  "sourcePath": "/Users/anduril/ens-playground/contracts/SecondaryRegistrar.sol",
  "compiler": {
    "name": "solc",
    "version": "0.4.18+commit.9cf6e910.Emscripten.clang"
  },
  "schemaVersion": "1.0.1",
  "updatedAt": "2017-12-19T21:20:50.470Z"
}