{
  "contractName": "TestRegistrar",
  "abi": [
    {
      "constant": true,
      "inputs": [],
      "name": "ens",
      "outputs": [
        {
          "name": "",
          "type": "address"
        }
      ],
      "payable": false,
      "stateMutability": "view",
      "type": "function"
    },
    {
      "constant": true,
      "inputs": [
        {
          "name": "",
          "type": "bytes32"
        }
      ],
      "name": "expiryTimes",
      "outputs": [
        {
          "name": "",
          "type": "uint256"
        }
      ],
      "payable": false,
      "stateMutability": "view",
      "type": "function"
    },
    {
      "constant": false,
      "inputs": [
        {
          "name": "subnode",
          "type": "bytes32"
        },
        {
          "name": "owner",
          "type": "address"
        }
      ],
      "name": "register",
      "outputs": [],
      "payable": false,
      "stateMutability": "nonpayable",
      "type": "function"
    },
    {
      "constant": true,
      "inputs": [],
      "name": "rootNode",
      "outputs": [
        {
          "name": "",
          "type": "bytes32"
        }
      ],
      "payable": false,
      "stateMutability": "view",
      "type": "function"
    },
    {
      "inputs": [
        {
          "name": "ensAddr",
          "type": "address"
        },
        {
          "name": "node",
          "type": "bytes32"
        }
      ],
      "payable": false,
      "stateMutability": "nonpayable",
      "type": "constructor"
    }
  ],
  "bytecode": "0x6060604052341561000f57600080fd5b6040516040806103b083398101604052808051906020019091908051906020019091905050816000806101000a81548173ffffffffffffffffffffffffffffffffffffffff021916908373ffffffffffffffffffffffffffffffffffffffff16021790555080600181600019169055505050610320806100906000396000f300606060405260043610610062576000357c0100000000000000000000000000000000000000000000000000000000900463ffffffff1680633f15457f14610067578063af9f26e4146100bc578063d22057a9146100f7578063faff50a81461013d575b600080fd5b341561007257600080fd5b61007a61016e565b604051808273ffffffffffffffffffffffffffffffffffffffff1673ffffffffffffffffffffffffffffffffffffffff16815260200191505060405180910390f35b34156100c757600080fd5b6100e1600480803560001916906020019091905050610193565b6040518082815260200191505060405180910390f35b341561010257600080fd5b61013b60048080356000191690602001909190803573ffffffffffffffffffffffffffffffffffffffff169060200190919050506101ab565b005b341561014857600080fd5b6101506102ee565b60405180826000191660001916815260200191505060405180910390f35b6000809054906101000a900473ffffffffffffffffffffffffffffffffffffffff1681565b60026020528060005260406000206000915090505481565b42600260008460001916600019168152602001908152602001600020541015156101d457600080fd5b6224ea004201600260008460001916600019168152602001908152602001600020819055506000809054906101000a900473ffffffffffffffffffffffffffffffffffffffff1673ffffffffffffffffffffffffffffffffffffffff166306ab592360015484846040518463ffffffff167c010000000000000000000000000000000000000000000000000000000002815260040180846000191660001916815260200183600019166000191681526020018273ffffffffffffffffffffffffffffffffffffffff1673ffffffffffffffffffffffffffffffffffffffff1681526020019350505050600060405180830381600087803b15156102d657600080fd5b6102c65a03f115156102e757600080fd5b5050505050565b600154815600a165627a7a72305820fc20d846422ff86084b78f211918b1308cd64d81b4762cf55d47d51ada9ffec90029",
  "source": "pragma solidity ^0.4.0;\n\nimport './AbstractENS.sol';\n\n/**\n * A registrar that allocates subdomains to the first person to claim them, but\n * expires registrations a fixed period after they're initially claimed.\n */\ncontract TestRegistrar {\n    uint constant registrationPeriod = 4 weeks;\n\n    AbstractENS public ens;\n    bytes32 public rootNode;\n    mapping(bytes32=>uint) public expiryTimes;\n\n    /**\n     * Constructor.\n     * @param ensAddr The address of the ENS registry.\n     * @param node The node that this registrar administers.\n     */\n    function TestRegistrar(AbstractENS ensAddr, bytes32 node) {\n        ens = ensAddr;\n        rootNode = node;\n    }\n\n    /**\n     * Register a name that's not currently registered\n     * @param subnode The hash of the label to register.\n     * @param owner The address of the new owner.\n     */\n    function register(bytes32 subnode, address owner) {\n        if (expiryTimes[subnode] >= now) throw;\n\n        expiryTimes[subnode] = now + registrationPeriod;\n        ens.setSubnodeOwner(rootNode, subnode, owner);\n    }\n}\n",
  "sourcePath": "/Users/anduril/ens-playground/contracts/TestRegistrar.sol",
  "compiler": {
    "name": "solc",
    "version": "0.4.18+commit.9cf6e910.Emscripten.clang"
  },
  "schemaVersion": "1.0.1",
  "updatedAt": "2017-12-18T19:31:39.129Z"
}